{"contracts/Cryrdle.sol":{"Cryrdle":{"abi":[{"inputs":[{"internalType":"uint256","name":"participationFee","type":"uint256"},{"internalType":"address","name":"vrfCoordinatorV2","type":"address"},{"internalType":"bytes32","name":"gasLane","type":"bytes32"},{"internalType":"uint64","name":"subscriptionId","type":"uint64"},{"internalType":"uint32","name":"callbackGasLimit","type":"uint32"},{"internalType":"uint256","name":"interval","type":"uint256"}],"stateMutability":"nonpayable","type":"constructor"},{"inputs":[{"internalType":"address","name":"have","type":"address"},{"internalType":"address","name":"want","type":"address"}],"name":"OnlyCoordinatorCanFulfill","type":"error"},{"inputs":[{"internalType":"uint256","name":"cryrdleState","type":"uint256"}],"name":"UpkeepNotNeeded","type":"error"},{"inputs":[],"name":"cryrdleNotOpen","type":"error"},{"inputs":[],"name":"lowScore","type":"error"},{"inputs":[],"name":"noPrizePool","type":"error"},{"inputs":[],"name":"noScore","type":"error"},{"inputs":[],"name":"notEqualFee","type":"error"},{"inputs":[],"name":"notPaidFee","type":"error"},{"anonymous":false,"inputs":[{"indexed":true,"internalType":"uint256","name":"coinOfTheDay","type":"uint256"}],"name":"CoinOfTheDayUpdated","type":"event"},{"anonymous":false,"inputs":[{"indexed":true,"internalType":"address","name":"participant","type":"address"}],"name":"CryrdleJoined","type":"event"},{"anonymous":false,"inputs":[{"indexed":true,"internalType":"uint256","name":"requestId","type":"uint256"}],"name":"RequestedCryrdleWinner","type":"event"},{"inputs":[{"internalType":"address","name":"_participant","type":"address"},{"internalType":"uint256","name":"points","type":"uint256"}],"name":"addPoints","outputs":[],"stateMutability":"nonpayable","type":"function"},{"inputs":[{"internalType":"bytes","name":"","type":"bytes"}],"name":"checkUpkeep","outputs":[{"internalType":"bool","name":"upkeepNeeded","type":"bool"},{"internalType":"bytes","name":"","type":"bytes"}],"stateMutability":"view","type":"function"},{"inputs":[],"name":"coinOfTheDay","outputs":[{"internalType":"uint256","name":"","type":"uint256"}],"stateMutability":"view","type":"function"},{"inputs":[],"name":"gameAcc","outputs":[{"internalType":"address","name":"","type":"address"}],"stateMutability":"view","type":"function"},{"inputs":[],"name":"gameBal","outputs":[{"internalType":"uint256","name":"","type":"uint256"}],"stateMutability":"view","type":"function"},{"inputs":[],"name":"getCryrdleState","outputs":[{"internalType":"enum Cryrdle.CryrdleState","name":"","type":"uint8"}],"stateMutability":"view","type":"function"},{"inputs":[],"name":"getHighScore","outputs":[{"internalType":"uint256","name":"","type":"uint256"}],"stateMutability":"view","type":"function"},{"inputs":[],"name":"getParticipants","outputs":[{"internalType":"address[]","name":"","type":"address[]"}],"stateMutability":"view","type":"function"},{"inputs":[],"name":"getParticipationFee","outputs":[{"internalType":"uint256","name":"","type":"uint256"}],"stateMutability":"view","type":"function"},{"inputs":[{"internalType":"address","name":"playerAddress","type":"address"}],"name":"getPlayerDayPointBalance","outputs":[{"internalType":"uint256","name":"","type":"uint256"}],"stateMutability":"view","type":"function"},{"inputs":[{"internalType":"address","name":"playerAddress","type":"address"}],"name":"getPlayerTotalPointBalance","outputs":[{"internalType":"uint256","name":"","type":"uint256"}],"stateMutability":"view","type":"function"},{"inputs":[],"name":"getRewardPerWinner","outputs":[{"internalType":"uint256","name":"","type":"uint256"}],"stateMutability":"view","type":"function"},{"inputs":[],"name":"getWinners","outputs":[{"internalType":"address[]","name":"","type":"address[]"}],"stateMutability":"view","type":"function"},{"inputs":[],"name":"highscore","outputs":[{"internalType":"uint256","name":"","type":"uint256"}],"stateMutability":"view","type":"function"},{"inputs":[],"name":"joinCryrdle","outputs":[],"stateMutability":"payable","type":"function"},{"inputs":[],"name":"payWinner","outputs":[],"stateMutability":"payable","type":"function"},{"inputs":[{"internalType":"bytes","name":"","type":"bytes"}],"name":"performUpkeep","outputs":[],"stateMutability":"nonpayable","type":"function"},{"inputs":[{"internalType":"uint256","name":"requestId","type":"uint256"},{"internalType":"uint256[]","name":"randomWords","type":"uint256[]"}],"name":"rawFulfillRandomWords","outputs":[],"stateMutability":"nonpayable","type":"function"},{"inputs":[],"name":"rewardPerWinner","outputs":[{"internalType":"uint256","name":"","type":"uint256"}],"stateMutability":"view","type":"function"}],"devdoc":{"kind":"dev","methods":{},"version":1},"evm":{"bytecode":{"linkReferences":{},"object":"6101606040523480156200001257600080fd5b5060405162002186380380620021868339818101604052810190620000389190620001f5565b848073ffffffffffffffffffffffffffffffffffffffff1660808173ffffffffffffffffffffffffffffffffffffffff1660601b81525050508473ffffffffffffffffffffffffffffffffffffffff1660e08173ffffffffffffffffffffffffffffffffffffffff1660601b815250508361010081815250508267ffffffffffffffff166101208167ffffffffffffffff1660c01b815250508163ffffffff166101408163ffffffff1660e01b81525050336000806101000a81548173ffffffffffffffffffffffffffffffffffffffff021916908373ffffffffffffffffffffffffffffffffffffffff16021790555060006001819055508560a081815250506000600860006101000a81548160ff02191690836001811115620001625762000161620002fd565b5b0217905550426009819055508060c08181525050505050505050620003b3565b600081519050620001938162000331565b92915050565b600081519050620001aa816200034b565b92915050565b600081519050620001c18162000365565b92915050565b600081519050620001d8816200037f565b92915050565b600081519050620001ef8162000399565b92915050565b60008060008060008060c087890312156200021557620002146200032c565b5b60006200022589828a01620001b0565b96505060206200023889828a0162000182565b95505060406200024b89828a0162000199565b94505060606200025e89828a01620001de565b93505060806200027189828a01620001c7565b92505060a06200028489828a01620001b0565b9150509295509295509295565b60006200029e82620002af565b9050919050565b6000819050919050565b600073ffffffffffffffffffffffffffffffffffffffff82169050919050565b6000819050919050565b600063ffffffff82169050919050565b600067ffffffffffffffff82169050919050565b7f4e487b7100000000000000000000000000000000000000000000000000000000600052602160045260246000fd5b600080fd5b6200033c8162000291565b81146200034857600080fd5b50565b6200035681620002a5565b81146200036257600080fd5b50565b6200037081620002cf565b81146200037c57600080fd5b50565b6200038a81620002d9565b81146200039657600080fd5b50565b620003a481620002e9565b8114620003b057600080fd5b50565b60805160601c60a05160c05160e05160601c610100516101205160c01c6101405160e01c611d5e6200042860003960006106490152600061062601526000610605015260006105c901526000610b9e015260008181610c200152610c4c01526000818161045201526104a60152611d5e6000f3fe6080604052600436106101145760003560e01c80636e04ff0d116100a0578063be71248a11610064578063be71248a14610371578063c763424f1461037b578063db705254146103a6578063df15c37e146103d1578063e40e93d5146103fc57610114565b80636e04ff0d146102a8578063863fc11e146102e65780638d8981b414610311578063959824d71461033c5780639abed90d1461034657610114565b8063507cd30f116100e7578063507cd30f146101c15780635142839f146101ea5780635aa0f9eb146102275780635aa68ac01461025257806364c8ec0c1461027d57610114565b806319682ae9146101195780631fe543e3146101445780633824ea311461016d5780634585e33b14610198575b600080fd5b34801561012557600080fd5b5061012e610439565b60405161013b919061186e565b60405180910390f35b34801561015057600080fd5b5061016b600480360381019061016691906115f3565b610450565b005b34801561017957600080fd5b50610182610510565b60405161018f9190611889565b60405180910390f35b3480156101a457600080fd5b506101bf60048036038101906101ba9190611530565b61051a565b005b3480156101cd57600080fd5b506101e860048036038101906101e391906114f0565b610711565b005b3480156101f657600080fd5b50610211600480360381019061020c91906114c3565b610a74565b60405161021e9190611889565b60405180910390f35b34801561023357600080fd5b5061023c610abd565b6040516102499190611889565b60405180910390f35b34801561025e57600080fd5b50610267610ac3565b60405161027491906117c9565b60405180910390f35b34801561028957600080fd5b50610292610b51565b60405161029f9190611889565b60405180910390f35b3480156102b457600080fd5b506102cf60048036038101906102ca919061157d565b610b5b565b6040516102dd9291906117eb565b60405180910390f35b3480156102f257600080fd5b506102fb610c1c565b6040516103089190611889565b60405180910390f35b34801561031d57600080fd5b50610326610c44565b6040516103339190611889565b60405180910390f35b610344610c4a565b005b34801561035257600080fd5b5061035b610e29565b6040516103689190611889565b60405180910390f35b610379610e2f565b005b34801561038757600080fd5b50610390610fee565b60405161039d9190611889565b60405180910390f35b3480156103b257600080fd5b506103bb610ff4565b6040516103c89190611785565b60405180910390f35b3480156103dd57600080fd5b506103e6611018565b6040516103f391906117c9565b60405180910390f35b34801561040857600080fd5b50610423600480360381019061041e91906114c3565b6110e3565b6040516104309190611889565b60405180910390f35b6000600860009054906101000a900460ff16905090565b7f000000000000000000000000000000000000000000000000000000000000000073ffffffffffffffffffffffffffffffffffffffff163373ffffffffffffffffffffffffffffffffffffffff161461050257337f00000000000000000000000000000000000000000000000000000000000000006040517f1cf993f40000000000000000000000000000000000000000000000000000000081526004016104f99291906117a0565b60405180910390fd5b61050c828261112c565b5050565b6000600454905090565b600061053460405180602001604052806000815250610b5b565b5090508061059a57600860009054906101000a900460ff16600181111561055e5761055d611c2a565b5b6040517faa2a11b30000000000000000000000000000000000000000000000000000000081526004016105919190611889565b60405180910390fd5b6001600860006101000a81548160ff021916908360018111156105c0576105bf611c2a565b5b021790555060007f000000000000000000000000000000000000000000000000000000000000000073ffffffffffffffffffffffffffffffffffffffff16635d3b1d307f00000000000000000000000000000000000000000000000000000000000000007f000000000000000000000000000000000000000000000000000000000000000060037f000000000000000000000000000000000000000000000000000000000000000060016040518663ffffffff1660e01b815260040161068a95949392919061181b565b602060405180830381600087803b1580156106a457600080fd5b505af11580156106b8573d6000803e3d6000fd5b505050506040513d601f19601f820116820180604052508101906106dc91906115c6565b9050807f12e40cbd2e337e0d967f593c64f1cf095ff3df3168620b5330ba5c5514d57d8560405160405180910390a250505050565b60011515600c60008473ffffffffffffffffffffffffffffffffffffffff1673ffffffffffffffffffffffffffffffffffffffff16815260200190815260200160002060009054906101000a900460ff1615151461079b576040517f9fa61b6b00000000000000000000000000000000000000000000000000000000815260040160405180910390fd5b80600b60008473ffffffffffffffffffffffffffffffffffffffff1673ffffffffffffffffffffffffffffffffffffffff16815260200190815260200160002060008282546107ea919061197b565b9250508190555080600a60008473ffffffffffffffffffffffffffffffffffffffff1673ffffffffffffffffffffffffffffffffffffffff1681526020019081526020016000206000828254610840919061197b565b92505081905550600454600b60008473ffffffffffffffffffffffffffffffffffffffff1673ffffffffffffffffffffffffffffffffffffffff1681526020019081526020016000205410156108c2576040517f36a5e99400000000000000000000000000000000000000000000000000000000815260040160405180910390fd5b600454600b60008473ffffffffffffffffffffffffffffffffffffffff1673ffffffffffffffffffffffffffffffffffffffff16815260200190815260200160002054141561098c576005829080600181540180825580915050600190039060005260206000200160009091909190916101000a81548173ffffffffffffffffffffffffffffffffffffffff021916908373ffffffffffffffffffffffffffffffffffffffff16021790555060058054905060015461098191906119d1565b600381905550610a70565b80600481905550600067ffffffffffffffff8111156109ae576109ad611c88565b5b6040519080825280602002602001820160405280156109dc5781602001602082028036833780820191505090505b50600590805190602001906109f29291906111ef565b506005829080600181540180825580915050600190039060005260206000200160009091909190916101000a81548173ffffffffffffffffffffffffffffffffffffffff021916908373ffffffffffffffffffffffffffffffffffffffff160217905550600580549050600154610a6991906119d1565b6003819055505b5050565b6000600a60008373ffffffffffffffffffffffffffffffffffffffff1673ffffffffffffffffffffffffffffffffffffffff168152602001908152602001600020549050919050565b60015481565b60606002805480602002602001604051908101604052809291908181526020018280548015610b4757602002820191906000526020600020905b8160009054906101000a900473ffffffffffffffffffffffffffffffffffffffff1673ffffffffffffffffffffffffffffffffffffffff1681526020019060010190808311610afd575b5050505050905090565b6000600354905090565b600060606000600860009054906101000a900460ff166001811115610b8357610b82611c2a565b5b60006001811115610b9757610b96611c2a565b5b14905060007f000000000000000000000000000000000000000000000000000000000000000060095442610bcb9190611a02565b119050808015610bd85750815b9350836040518060400160405280600381526020017f3078300000000000000000000000000000000000000000000000000000000000815250935093505050915091565b60007f0000000000000000000000000000000000000000000000000000000000000000905090565b60045481565b7f00000000000000000000000000000000000000000000000000000000000000003414610ca3576040517f9b0d899a00000000000000000000000000000000000000000000000000000000815260040160405180910390fd5b6002339080600181540180825580915050600190039060005260206000200160009091909190916101000a81548173ffffffffffffffffffffffffffffffffffffffff021916908373ffffffffffffffffffffffffffffffffffffffff1602179055503460016000828254610d18919061197b565b925050819055506001600c60003373ffffffffffffffffffffffffffffffffffffffff1673ffffffffffffffffffffffffffffffffffffffff16815260200190815260200160002060006101000a81548160ff0219169083151502179055503373ffffffffffffffffffffffffffffffffffffffff167f970f4396869f233c8ed5d8298cd4c285ad5bb9ee51f3143b146bccad8943903d60405160405180910390a260006001811115610dce57610dcd611c2a565b5b600860009054906101000a900460ff166001811115610df057610def611c2a565b5b14610e27576040517feb4ed6a900000000000000000000000000000000000000000000000000000000815260040160405180910390fd5b565b60035481565b6000341115610e6a576040517f5b966e5d00000000000000000000000000000000000000000000000000000000815260040160405180910390fd5b60005b600580549050811015610f145760058181548110610e8e57610e8d611c59565b5b9060005260206000200160009054906101000a900473ffffffffffffffffffffffffffffffffffffffff1673ffffffffffffffffffffffffffffffffffffffff166108fc6003549081150290604051600060405180830381858888f19350505050158015610f00573d6000803e3d6000fd5b508080610f0c90611b52565b915050610e6d565b506000600181905550600067ffffffffffffffff811115610f3857610f37611c88565b5b604051908082528060200260200182016040528015610f665781602001602082028036833780820191505090505b5060059080519060200190610f7c9291906111ef565b50600067ffffffffffffffff811115610f9857610f97611c88565b5b604051908082528060200260200182016040528015610fc65781602001602082028036833780820191505090505b5060029080519060200190610fdc929190611279565b50600060068190555042600981905550565b60065481565b60008054906101000a900473ffffffffffffffffffffffffffffffffffffffff1681565b606060006003541415611057576040517f6d2c5a5400000000000000000000000000000000000000000000000000000000815260040160405180910390fd5b60058054806020026020016040519081016040528092919081815260200182805480156110d957602002820191906000526020600020905b8160009054906101000a900473ffffffffffffffffffffffffffffffffffffffff1673ffffffffffffffffffffffffffffffffffffffff168152602001906001019080831161108f575b5050505050905090565b6000600b60008373ffffffffffffffffffffffffffffffffffffffff1673ffffffffffffffffffffffffffffffffffffffff168152602001908152602001600020549050919050565b600160648260008151811061114457611143611c59565b5b60200260200101516111569190611b9b565b611160919061197b565b600681905550600760065490806001815401808255809150506001900390600052602060002001600090919091909150556006547f75c61172a72ac1ebefdf79e15dcf7ff41e653b7f28cdb30b99527c8e2c80504560405160405180910390a26000600860006101000a81548160ff021916908360018111156111e6576111e5611c2a565b5b02179055505050565b828054828255906000526020600020908101928215611268579160200282015b828111156112675782518260006101000a81548173ffffffffffffffffffffffffffffffffffffffff021916908373ffffffffffffffffffffffffffffffffffffffff1602179055509160200191906001019061120f565b5b5090506112759190611303565b5090565b8280548282559060005260206000209081019282156112f2579160200282015b828111156112f15782518260006101000a81548173ffffffffffffffffffffffffffffffffffffffff021916908373ffffffffffffffffffffffffffffffffffffffff16021790555091602001919060010190611299565b5b5090506112ff9190611303565b5090565b5b8082111561131c576000816000905550600101611304565b5090565b600061133361132e846118c9565b6118a4565b9050808382526020820190508285602086028201111561135657611355611cc1565b5b60005b85811015611386578161136c8882611499565b845260208401935060208301925050600181019050611359565b5050509392505050565b60006113a361139e846118f5565b6118a4565b9050828152602081018484840111156113bf576113be611cc6565b5b6113ca848285611adf565b509392505050565b6000813590506113e181611cfa565b92915050565b600082601f8301126113fc576113fb611cbc565b5b813561140c848260208601611320565b91505092915050565b60008083601f84011261142b5761142a611cbc565b5b8235905067ffffffffffffffff81111561144857611447611cb7565b5b60208301915083600182028301111561146457611463611cc1565b5b9250929050565b600082601f8301126114805761147f611cbc565b5b8135611490848260208601611390565b91505092915050565b6000813590506114a881611d11565b92915050565b6000815190506114bd81611d11565b92915050565b6000602082840312156114d9576114d8611cd0565b5b60006114e7848285016113d2565b91505092915050565b6000806040838503121561150757611506611cd0565b5b6000611515858286016113d2565b925050602061152685828601611499565b9150509250929050565b6000806020838503121561154757611546611cd0565b5b600083013567ffffffffffffffff81111561156557611564611ccb565b5b61157185828601611415565b92509250509250929050565b60006020828403121561159357611592611cd0565b5b600082013567ffffffffffffffff8111156115b1576115b0611ccb565b5b6115bd8482850161146b565b91505092915050565b6000602082840312156115dc576115db611cd0565b5b60006115ea848285016114ae565b91505092915050565b6000806040838503121561160a57611609611cd0565b5b600061161885828601611499565b925050602083013567ffffffffffffffff81111561163957611638611ccb565b5b611645858286016113e7565b9150509250929050565b600061165b8383611667565b60208301905092915050565b61167081611a36565b82525050565b61167f81611a36565b82525050565b600061169082611936565b61169a8185611959565b93506116a583611926565b8060005b838110156116d65781516116bd888261164f565b97506116c88361194c565b9250506001810190506116a9565b5085935050505092915050565b6116ec81611a48565b82525050565b6116fb81611a54565b82525050565b600061170c82611941565b611716818561196a565b9350611726818560208601611aee565b61172f81611cd5565b840191505092915050565b61174381611acd565b82525050565b61175281611a71565b82525050565b61176181611a9f565b82525050565b61177081611aa9565b82525050565b61177f81611ab9565b82525050565b600060208201905061179a6000830184611676565b92915050565b60006040820190506117b56000830185611676565b6117c26020830184611676565b9392505050565b600060208201905081810360008301526117e38184611685565b905092915050565b600060408201905061180060008301856116e3565b81810360208301526118128184611701565b90509392505050565b600060a08201905061183060008301886116f2565b61183d6020830187611776565b61184a6040830186611749565b6118576060830185611767565b6118646080830184611767565b9695505050505050565b6000602082019050611883600083018461173a565b92915050565b600060208201905061189e6000830184611758565b92915050565b60006118ae6118bf565b90506118ba8282611b21565b919050565b6000604051905090565b600067ffffffffffffffff8211156118e4576118e3611c88565b5b602082029050602081019050919050565b600067ffffffffffffffff8211156119105761190f611c88565b5b61191982611cd5565b9050602081019050919050565b6000819050602082019050919050565b600081519050919050565b600081519050919050565b6000602082019050919050565b600082825260208201905092915050565b600082825260208201905092915050565b600061198682611a9f565b915061199183611a9f565b9250827fffffffffffffffffffffffffffffffffffffffffffffffffffffffffffffffff038211156119c6576119c5611bcc565b5b828201905092915050565b60006119dc82611a9f565b91506119e783611a9f565b9250826119f7576119f6611bfb565b5b828204905092915050565b6000611a0d82611a9f565b9150611a1883611a9f565b925082821015611a2b57611a2a611bcc565b5b828203905092915050565b6000611a4182611a7f565b9050919050565b60008115159050919050565b6000819050919050565b6000819050611a6c82611ce6565b919050565b600061ffff82169050919050565b600073ffffffffffffffffffffffffffffffffffffffff82169050919050565b6000819050919050565b600063ffffffff82169050919050565b600067ffffffffffffffff82169050919050565b6000611ad882611a5e565b9050919050565b82818337600083830152505050565b60005b83811015611b0c578082015181840152602081019050611af1565b83811115611b1b576000848401525b50505050565b611b2a82611cd5565b810181811067ffffffffffffffff82111715611b4957611b48611c88565b5b80604052505050565b6000611b5d82611a9f565b91507fffffffffffffffffffffffffffffffffffffffffffffffffffffffffffffffff821415611b9057611b8f611bcc565b5b600182019050919050565b6000611ba682611a9f565b9150611bb183611a9f565b925082611bc157611bc0611bfb565b5b828206905092915050565b7f4e487b7100000000000000000000000000000000000000000000000000000000600052601160045260246000fd5b7f4e487b7100000000000000000000000000000000000000000000000000000000600052601260045260246000fd5b7f4e487b7100000000000000000000000000000000000000000000000000000000600052602160045260246000fd5b7f4e487b7100000000000000000000000000000000000000000000000000000000600052603260045260246000fd5b7f4e487b7100000000000000000000000000000000000000000000000000000000600052604160045260246000fd5b600080fd5b600080fd5b600080fd5b600080fd5b600080fd5b600080fd5b6000601f19601f8301169050919050565b60028110611cf757611cf6611c2a565b5b50565b611d0381611a36565b8114611d0e57600080fd5b50565b611d1a81611a9f565b8114611d2557600080fd5b5056fea26469706673582212200ce08a9c8d6c0184ab31588824188b491e8f42d6cc02755ce6fa250c29533a6b64736f6c63430008070033","opcodes":"PUSH2 0x160 PUSH1 0x40 MSTORE CALLVALUE DUP1 ISZERO PUSH3 0x12 JUMPI PUSH1 0x0 DUP1 REVERT JUMPDEST POP PUSH1 0x40 MLOAD PUSH3 0x2186 CODESIZE SUB DUP1 PUSH3 0x2186 DUP4 CODECOPY DUP2 DUP2 ADD PUSH1 0x40 MSTORE DUP2 ADD SWAP1 PUSH3 0x38 SWAP2 SWAP1 PUSH3 0x1F5 JUMP JUMPDEST DUP5 DUP1 PUSH20 0xFFFFFFFFFFFFFFFFFFFFFFFFFFFFFFFFFFFFFFFF AND PUSH1 0x80 DUP2 PUSH20 0xFFFFFFFFFFFFFFFFFFFFFFFFFFFFFFFFFFFFFFFF AND PUSH1 0x60 SHL DUP2 MSTORE POP POP POP DUP5 PUSH20 0xFFFFFFFFFFFFFFFFFFFFFFFFFFFFFFFFFFFFFFFF AND PUSH1 0xE0 DUP2 PUSH20 0xFFFFFFFFFFFFFFFFFFFFFFFFFFFFFFFFFFFFFFFF AND PUSH1 0x60 SHL DUP2 MSTORE POP POP DUP4 PUSH2 0x100 DUP2 DUP2 MSTORE POP POP DUP3 PUSH8 0xFFFFFFFFFFFFFFFF AND PUSH2 0x120 DUP2 PUSH8 0xFFFFFFFFFFFFFFFF AND PUSH1 0xC0 SHL DUP2 MSTORE POP POP DUP2 PUSH4 0xFFFFFFFF AND PUSH2 0x140 DUP2 PUSH4 0xFFFFFFFF AND PUSH1 0xE0 SHL DUP2 MSTORE POP POP CALLER PUSH1 0x0 DUP1 PUSH2 0x100 EXP DUP2 SLOAD DUP2 PUSH20 0xFFFFFFFFFFFFFFFFFFFFFFFFFFFFFFFFFFFFFFFF MUL NOT AND SWAP1 DUP4 PUSH20 0xFFFFFFFFFFFFFFFFFFFFFFFFFFFFFFFFFFFFFFFF AND MUL OR SWAP1 SSTORE POP PUSH1 0x0 PUSH1 0x1 DUP2 SWAP1 SSTORE POP DUP6 PUSH1 0xA0 DUP2 DUP2 MSTORE POP POP PUSH1 0x0 PUSH1 0x8 PUSH1 0x0 PUSH2 0x100 EXP DUP2 SLOAD DUP2 PUSH1 0xFF MUL NOT AND SWAP1 DUP4 PUSH1 0x1 DUP2 GT ISZERO PUSH3 0x162 JUMPI PUSH3 0x161 PUSH3 0x2FD JUMP JUMPDEST JUMPDEST MUL OR SWAP1 SSTORE POP TIMESTAMP PUSH1 0x9 DUP2 SWAP1 SSTORE POP DUP1 PUSH1 0xC0 DUP2 DUP2 MSTORE POP POP POP POP POP POP POP POP PUSH3 0x3B3 JUMP JUMPDEST PUSH1 0x0 DUP2 MLOAD SWAP1 POP PUSH3 0x193 DUP2 PUSH3 0x331 JUMP JUMPDEST SWAP3 SWAP2 POP POP JUMP JUMPDEST PUSH1 0x0 DUP2 MLOAD SWAP1 POP PUSH3 0x1AA DUP2 PUSH3 0x34B JUMP JUMPDEST SWAP3 SWAP2 POP POP JUMP JUMPDEST PUSH1 0x0 DUP2 MLOAD SWAP1 POP PUSH3 0x1C1 DUP2 PUSH3 0x365 JUMP JUMPDEST SWAP3 SWAP2 POP POP JUMP JUMPDEST PUSH1 0x0 DUP2 MLOAD SWAP1 POP PUSH3 0x1D8 DUP2 PUSH3 0x37F JUMP JUMPDEST SWAP3 SWAP2 POP POP JUMP JUMPDEST PUSH1 0x0 DUP2 MLOAD SWAP1 POP PUSH3 0x1EF DUP2 PUSH3 0x399 JUMP JUMPDEST SWAP3 SWAP2 POP POP JUMP JUMPDEST PUSH1 0x0 DUP1 PUSH1 0x0 DUP1 PUSH1 0x0 DUP1 PUSH1 0xC0 DUP8 DUP10 SUB SLT ISZERO PUSH3 0x215 JUMPI PUSH3 0x214 PUSH3 0x32C JUMP JUMPDEST JUMPDEST PUSH1 0x0 PUSH3 0x225 DUP10 DUP3 DUP11 ADD PUSH3 0x1B0 JUMP JUMPDEST SWAP7 POP POP PUSH1 0x20 PUSH3 0x238 DUP10 DUP3 DUP11 ADD PUSH3 0x182 JUMP JUMPDEST SWAP6 POP POP PUSH1 0x40 PUSH3 0x24B DUP10 DUP3 DUP11 ADD PUSH3 0x199 JUMP JUMPDEST SWAP5 POP POP PUSH1 0x60 PUSH3 0x25E DUP10 DUP3 DUP11 ADD PUSH3 0x1DE JUMP JUMPDEST SWAP4 POP POP PUSH1 0x80 PUSH3 0x271 DUP10 DUP3 DUP11 ADD PUSH3 0x1C7 JUMP JUMPDEST SWAP3 POP POP PUSH1 0xA0 PUSH3 0x284 DUP10 DUP3 DUP11 ADD PUSH3 0x1B0 JUMP JUMPDEST SWAP2 POP POP SWAP3 SWAP6 POP SWAP3 SWAP6 POP SWAP3 SWAP6 JUMP JUMPDEST PUSH1 0x0 PUSH3 0x29E DUP3 PUSH3 0x2AF JUMP JUMPDEST SWAP1 POP SWAP2 SWAP1 POP JUMP JUMPDEST PUSH1 0x0 DUP2 SWAP1 POP SWAP2 SWAP1 POP JUMP JUMPDEST PUSH1 0x0 PUSH20 0xFFFFFFFFFFFFFFFFFFFFFFFFFFFFFFFFFFFFFFFF DUP3 AND SWAP1 POP SWAP2 SWAP1 POP JUMP JUMPDEST PUSH1 0x0 DUP2 SWAP1 POP SWAP2 SWAP1 POP JUMP JUMPDEST PUSH1 0x0 PUSH4 0xFFFFFFFF DUP3 AND SWAP1 POP SWAP2 SWAP1 POP JUMP JUMPDEST PUSH1 0x0 PUSH8 0xFFFFFFFFFFFFFFFF DUP3 AND SWAP1 POP SWAP2 SWAP1 POP JUMP JUMPDEST PUSH32 0x4E487B7100000000000000000000000000000000000000000000000000000000 PUSH1 0x0 MSTORE PUSH1 0x21 PUSH1 0x4 MSTORE PUSH1 0x24 PUSH1 0x0 REVERT JUMPDEST PUSH1 0x0 DUP1 REVERT JUMPDEST PUSH3 0x33C DUP2 PUSH3 0x291 JUMP JUMPDEST DUP2 EQ PUSH3 0x348 JUMPI PUSH1 0x0 DUP1 REVERT JUMPDEST POP JUMP JUMPDEST PUSH3 0x356 DUP2 PUSH3 0x2A5 JUMP JUMPDEST DUP2 EQ PUSH3 0x362 JUMPI PUSH1 0x0 DUP1 REVERT JUMPDEST POP JUMP JUMPDEST PUSH3 0x370 DUP2 PUSH3 0x2CF JUMP JUMPDEST DUP2 EQ PUSH3 0x37C JUMPI PUSH1 0x0 DUP1 REVERT JUMPDEST POP JUMP JUMPDEST PUSH3 0x38A DUP2 PUSH3 0x2D9 JUMP JUMPDEST DUP2 EQ PUSH3 0x396 JUMPI PUSH1 0x0 DUP1 REVERT JUMPDEST POP JUMP JUMPDEST PUSH3 0x3A4 DUP2 PUSH3 0x2E9 JUMP JUMPDEST DUP2 EQ PUSH3 0x3B0 JUMPI PUSH1 0x0 DUP1 REVERT JUMPDEST POP JUMP JUMPDEST PUSH1 0x80 MLOAD PUSH1 0x60 SHR PUSH1 0xA0 MLOAD PUSH1 0xC0 MLOAD PUSH1 0xE0 MLOAD PUSH1 0x60 SHR PUSH2 0x100 MLOAD PUSH2 0x120 MLOAD PUSH1 0xC0 SHR PUSH2 0x140 MLOAD PUSH1 0xE0 SHR PUSH2 0x1D5E PUSH3 0x428 PUSH1 0x0 CODECOPY PUSH1 0x0 PUSH2 0x649 ADD MSTORE PUSH1 0x0 PUSH2 0x626 ADD MSTORE PUSH1 0x0 PUSH2 0x605 ADD MSTORE PUSH1 0x0 PUSH2 0x5C9 ADD MSTORE PUSH1 0x0 PUSH2 0xB9E ADD MSTORE PUSH1 0x0 DUP2 DUP2 PUSH2 0xC20 ADD MSTORE PUSH2 0xC4C ADD MSTORE PUSH1 0x0 DUP2 DUP2 PUSH2 0x452 ADD MSTORE PUSH2 0x4A6 ADD MSTORE PUSH2 0x1D5E PUSH1 0x0 RETURN INVALID PUSH1 0x80 PUSH1 0x40 MSTORE PUSH1 0x4 CALLDATASIZE LT PUSH2 0x114 JUMPI PUSH1 0x0 CALLDATALOAD PUSH1 0xE0 SHR DUP1 PUSH4 0x6E04FF0D GT PUSH2 0xA0 JUMPI DUP1 PUSH4 0xBE71248A GT PUSH2 0x64 JUMPI DUP1 PUSH4 0xBE71248A EQ PUSH2 0x371 JUMPI DUP1 PUSH4 0xC763424F EQ PUSH2 0x37B JUMPI DUP1 PUSH4 0xDB705254 EQ PUSH2 0x3A6 JUMPI DUP1 PUSH4 0xDF15C37E EQ PUSH2 0x3D1 JUMPI DUP1 PUSH4 0xE40E93D5 EQ PUSH2 0x3FC JUMPI PUSH2 0x114 JUMP JUMPDEST DUP1 PUSH4 0x6E04FF0D EQ PUSH2 0x2A8 JUMPI DUP1 PUSH4 0x863FC11E EQ PUSH2 0x2E6 JUMPI DUP1 PUSH4 0x8D8981B4 EQ PUSH2 0x311 JUMPI DUP1 PUSH4 0x959824D7 EQ PUSH2 0x33C JUMPI DUP1 PUSH4 0x9ABED90D EQ PUSH2 0x346 JUMPI PUSH2 0x114 JUMP JUMPDEST DUP1 PUSH4 0x507CD30F GT PUSH2 0xE7 JUMPI DUP1 PUSH4 0x507CD30F EQ PUSH2 0x1C1 JUMPI DUP1 PUSH4 0x5142839F EQ PUSH2 0x1EA JUMPI DUP1 PUSH4 0x5AA0F9EB EQ PUSH2 0x227 JUMPI DUP1 PUSH4 0x5AA68AC0 EQ PUSH2 0x252 JUMPI DUP1 PUSH4 0x64C8EC0C EQ PUSH2 0x27D JUMPI PUSH2 0x114 JUMP JUMPDEST DUP1 PUSH4 0x19682AE9 EQ PUSH2 0x119 JUMPI DUP1 PUSH4 0x1FE543E3 EQ PUSH2 0x144 JUMPI DUP1 PUSH4 0x3824EA31 EQ PUSH2 0x16D JUMPI DUP1 PUSH4 0x4585E33B EQ PUSH2 0x198 JUMPI JUMPDEST PUSH1 0x0 DUP1 REVERT JUMPDEST CALLVALUE DUP1 ISZERO PUSH2 0x125 JUMPI PUSH1 0x0 DUP1 REVERT JUMPDEST POP PUSH2 0x12E PUSH2 0x439 JUMP JUMPDEST PUSH1 0x40 MLOAD PUSH2 0x13B SWAP2 SWAP1 PUSH2 0x186E JUMP JUMPDEST PUSH1 0x40 MLOAD DUP1 SWAP2 SUB SWAP1 RETURN JUMPDEST CALLVALUE DUP1 ISZERO PUSH2 0x150 JUMPI PUSH1 0x0 DUP1 REVERT JUMPDEST POP PUSH2 0x16B PUSH1 0x4 DUP1 CALLDATASIZE SUB DUP2 ADD SWAP1 PUSH2 0x166 SWAP2 SWAP1 PUSH2 0x15F3 JUMP JUMPDEST PUSH2 0x450 JUMP JUMPDEST STOP JUMPDEST CALLVALUE DUP1 ISZERO PUSH2 0x179 JUMPI PUSH1 0x0 DUP1 REVERT JUMPDEST POP PUSH2 0x182 PUSH2 0x510 JUMP JUMPDEST PUSH1 0x40 MLOAD PUSH2 0x18F SWAP2 SWAP1 PUSH2 0x1889 JUMP JUMPDEST PUSH1 0x40 MLOAD DUP1 SWAP2 SUB SWAP1 RETURN JUMPDEST CALLVALUE DUP1 ISZERO PUSH2 0x1A4 JUMPI PUSH1 0x0 DUP1 REVERT JUMPDEST POP PUSH2 0x1BF PUSH1 0x4 DUP1 CALLDATASIZE SUB DUP2 ADD SWAP1 PUSH2 0x1BA SWAP2 SWAP1 PUSH2 0x1530 JUMP JUMPDEST PUSH2 0x51A JUMP JUMPDEST STOP JUMPDEST CALLVALUE DUP1 ISZERO PUSH2 0x1CD JUMPI PUSH1 0x0 DUP1 REVERT JUMPDEST POP PUSH2 0x1E8 PUSH1 0x4 DUP1 CALLDATASIZE SUB DUP2 ADD SWAP1 PUSH2 0x1E3 SWAP2 SWAP1 PUSH2 0x14F0 JUMP JUMPDEST PUSH2 0x711 JUMP JUMPDEST STOP JUMPDEST CALLVALUE DUP1 ISZERO PUSH2 0x1F6 JUMPI PUSH1 0x0 DUP1 REVERT JUMPDEST POP PUSH2 0x211 PUSH1 0x4 DUP1 CALLDATASIZE SUB DUP2 ADD SWAP1 PUSH2 0x20C SWAP2 SWAP1 PUSH2 0x14C3 JUMP JUMPDEST PUSH2 0xA74 JUMP JUMPDEST PUSH1 0x40 MLOAD PUSH2 0x21E SWAP2 SWAP1 PUSH2 0x1889 JUMP JUMPDEST PUSH1 0x40 MLOAD DUP1 SWAP2 SUB SWAP1 RETURN JUMPDEST CALLVALUE DUP1 ISZERO PUSH2 0x233 JUMPI PUSH1 0x0 DUP1 REVERT JUMPDEST POP PUSH2 0x23C PUSH2 0xABD JUMP JUMPDEST PUSH1 0x40 MLOAD PUSH2 0x249 SWAP2 SWAP1 PUSH2 0x1889 JUMP JUMPDEST PUSH1 0x40 MLOAD DUP1 SWAP2 SUB SWAP1 RETURN JUMPDEST CALLVALUE DUP1 ISZERO PUSH2 0x25E JUMPI PUSH1 0x0 DUP1 REVERT JUMPDEST POP PUSH2 0x267 PUSH2 0xAC3 JUMP JUMPDEST PUSH1 0x40 MLOAD PUSH2 0x274 SWAP2 SWAP1 PUSH2 0x17C9 JUMP JUMPDEST PUSH1 0x40 MLOAD DUP1 SWAP2 SUB SWAP1 RETURN JUMPDEST CALLVALUE DUP1 ISZERO PUSH2 0x289 JUMPI PUSH1 0x0 DUP1 REVERT JUMPDEST POP PUSH2 0x292 PUSH2 0xB51 JUMP JUMPDEST PUSH1 0x40 MLOAD PUSH2 0x29F SWAP2 SWAP1 PUSH2 0x1889 JUMP JUMPDEST PUSH1 0x40 MLOAD DUP1 SWAP2 SUB SWAP1 RETURN JUMPDEST CALLVALUE DUP1 ISZERO PUSH2 0x2B4 JUMPI PUSH1 0x0 DUP1 REVERT JUMPDEST POP PUSH2 0x2CF PUSH1 0x4 DUP1 CALLDATASIZE SUB DUP2 ADD SWAP1 PUSH2 0x2CA SWAP2 SWAP1 PUSH2 0x157D JUMP JUMPDEST PUSH2 0xB5B JUMP JUMPDEST PUSH1 0x40 MLOAD PUSH2 0x2DD SWAP3 SWAP2 SWAP1 PUSH2 0x17EB JUMP JUMPDEST PUSH1 0x40 MLOAD DUP1 SWAP2 SUB SWAP1 RETURN JUMPDEST CALLVALUE DUP1 ISZERO PUSH2 0x2F2 JUMPI PUSH1 0x0 DUP1 REVERT JUMPDEST POP PUSH2 0x2FB PUSH2 0xC1C JUMP JUMPDEST PUSH1 0x40 MLOAD PUSH2 0x308 SWAP2 SWAP1 PUSH2 0x1889 JUMP JUMPDEST PUSH1 0x40 MLOAD DUP1 SWAP2 SUB SWAP1 RETURN JUMPDEST CALLVALUE DUP1 ISZERO PUSH2 0x31D JUMPI PUSH1 0x0 DUP1 REVERT JUMPDEST POP PUSH2 0x326 PUSH2 0xC44 JUMP JUMPDEST PUSH1 0x40 MLOAD PUSH2 0x333 SWAP2 SWAP1 PUSH2 0x1889 JUMP JUMPDEST PUSH1 0x40 MLOAD DUP1 SWAP2 SUB SWAP1 RETURN JUMPDEST PUSH2 0x344 PUSH2 0xC4A JUMP JUMPDEST STOP JUMPDEST CALLVALUE DUP1 ISZERO PUSH2 0x352 JUMPI PUSH1 0x0 DUP1 REVERT JUMPDEST POP PUSH2 0x35B PUSH2 0xE29 JUMP JUMPDEST PUSH1 0x40 MLOAD PUSH2 0x368 SWAP2 SWAP1 PUSH2 0x1889 JUMP JUMPDEST PUSH1 0x40 MLOAD DUP1 SWAP2 SUB SWAP1 RETURN JUMPDEST PUSH2 0x379 PUSH2 0xE2F JUMP JUMPDEST STOP JUMPDEST CALLVALUE DUP1 ISZERO PUSH2 0x387 JUMPI PUSH1 0x0 DUP1 REVERT JUMPDEST POP PUSH2 0x390 PUSH2 0xFEE JUMP JUMPDEST PUSH1 0x40 MLOAD PUSH2 0x39D SWAP2 SWAP1 PUSH2 0x1889 JUMP JUMPDEST PUSH1 0x40 MLOAD DUP1 SWAP2 SUB SWAP1 RETURN JUMPDEST CALLVALUE DUP1 ISZERO PUSH2 0x3B2 JUMPI PUSH1 0x0 DUP1 REVERT JUMPDEST POP PUSH2 0x3BB PUSH2 0xFF4 JUMP JUMPDEST PUSH1 0x40 MLOAD PUSH2 0x3C8 SWAP2 SWAP1 PUSH2 0x1785 JUMP JUMPDEST PUSH1 0x40 MLOAD DUP1 SWAP2 SUB SWAP1 RETURN JUMPDEST CALLVALUE DUP1 ISZERO PUSH2 0x3DD JUMPI PUSH1 0x0 DUP1 REVERT JUMPDEST POP PUSH2 0x3E6 PUSH2 0x1018 JUMP JUMPDEST PUSH1 0x40 MLOAD PUSH2 0x3F3 SWAP2 SWAP1 PUSH2 0x17C9 JUMP JUMPDEST PUSH1 0x40 MLOAD DUP1 SWAP2 SUB SWAP1 RETURN JUMPDEST CALLVALUE DUP1 ISZERO PUSH2 0x408 JUMPI PUSH1 0x0 DUP1 REVERT JUMPDEST POP PUSH2 0x423 PUSH1 0x4 DUP1 CALLDATASIZE SUB DUP2 ADD SWAP1 PUSH2 0x41E SWAP2 SWAP1 PUSH2 0x14C3 JUMP JUMPDEST PUSH2 0x10E3 JUMP JUMPDEST PUSH1 0x40 MLOAD PUSH2 0x430 SWAP2 SWAP1 PUSH2 0x1889 JUMP JUMPDEST PUSH1 0x40 MLOAD DUP1 SWAP2 SUB SWAP1 RETURN JUMPDEST PUSH1 0x0 PUSH1 0x8 PUSH1 0x0 SWAP1 SLOAD SWAP1 PUSH2 0x100 EXP SWAP1 DIV PUSH1 0xFF AND SWAP1 POP SWAP1 JUMP JUMPDEST PUSH32 0x0 PUSH20 0xFFFFFFFFFFFFFFFFFFFFFFFFFFFFFFFFFFFFFFFF AND CALLER PUSH20 0xFFFFFFFFFFFFFFFFFFFFFFFFFFFFFFFFFFFFFFFF AND EQ PUSH2 0x502 JUMPI CALLER PUSH32 0x0 PUSH1 0x40 MLOAD PUSH32 0x1CF993F400000000000000000000000000000000000000000000000000000000 DUP2 MSTORE PUSH1 0x4 ADD PUSH2 0x4F9 SWAP3 SWAP2 SWAP1 PUSH2 0x17A0 JUMP JUMPDEST PUSH1 0x40 MLOAD DUP1 SWAP2 SUB SWAP1 REVERT JUMPDEST PUSH2 0x50C DUP3 DUP3 PUSH2 0x112C JUMP JUMPDEST POP POP JUMP JUMPDEST PUSH1 0x0 PUSH1 0x4 SLOAD SWAP1 POP SWAP1 JUMP JUMPDEST PUSH1 0x0 PUSH2 0x534 PUSH1 0x40 MLOAD DUP1 PUSH1 0x20 ADD PUSH1 0x40 MSTORE DUP1 PUSH1 0x0 DUP2 MSTORE POP PUSH2 0xB5B JUMP JUMPDEST POP SWAP1 POP DUP1 PUSH2 0x59A JUMPI PUSH1 0x8 PUSH1 0x0 SWAP1 SLOAD SWAP1 PUSH2 0x100 EXP SWAP1 DIV PUSH1 0xFF AND PUSH1 0x1 DUP2 GT ISZERO PUSH2 0x55E JUMPI PUSH2 0x55D PUSH2 0x1C2A JUMP JUMPDEST JUMPDEST PUSH1 0x40 MLOAD PUSH32 0xAA2A11B300000000000000000000000000000000000000000000000000000000 DUP2 MSTORE PUSH1 0x4 ADD PUSH2 0x591 SWAP2 SWAP1 PUSH2 0x1889 JUMP JUMPDEST PUSH1 0x40 MLOAD DUP1 SWAP2 SUB SWAP1 REVERT JUMPDEST PUSH1 0x1 PUSH1 0x8 PUSH1 0x0 PUSH2 0x100 EXP DUP2 SLOAD DUP2 PUSH1 0xFF MUL NOT AND SWAP1 DUP4 PUSH1 0x1 DUP2 GT ISZERO PUSH2 0x5C0 JUMPI PUSH2 0x5BF PUSH2 0x1C2A JUMP JUMPDEST JUMPDEST MUL OR SWAP1 SSTORE POP PUSH1 0x0 PUSH32 0x0 PUSH20 0xFFFFFFFFFFFFFFFFFFFFFFFFFFFFFFFFFFFFFFFF AND PUSH4 0x5D3B1D30 PUSH32 0x0 PUSH32 0x0 PUSH1 0x3 PUSH32 0x0 PUSH1 0x1 PUSH1 0x40 MLOAD DUP7 PUSH4 0xFFFFFFFF AND PUSH1 0xE0 SHL DUP2 MSTORE PUSH1 0x4 ADD PUSH2 0x68A SWAP6 SWAP5 SWAP4 SWAP3 SWAP2 SWAP1 PUSH2 0x181B JUMP JUMPDEST PUSH1 0x20 PUSH1 0x40 MLOAD DUP1 DUP4 SUB DUP2 PUSH1 0x0 DUP8 DUP1 EXTCODESIZE ISZERO DUP1 ISZERO PUSH2 0x6A4 JUMPI PUSH1 0x0 DUP1 REVERT JUMPDEST POP GAS CALL ISZERO DUP1 ISZERO PUSH2 0x6B8 JUMPI RETURNDATASIZE PUSH1 0x0 DUP1 RETURNDATACOPY RETURNDATASIZE PUSH1 0x0 REVERT JUMPDEST POP POP POP POP PUSH1 0x40 MLOAD RETURNDATASIZE PUSH1 0x1F NOT PUSH1 0x1F DUP3 ADD AND DUP3 ADD DUP1 PUSH1 0x40 MSTORE POP DUP2 ADD SWAP1 PUSH2 0x6DC SWAP2 SWAP1 PUSH2 0x15C6 JUMP JUMPDEST SWAP1 POP DUP1 PUSH32 0x12E40CBD2E337E0D967F593C64F1CF095FF3DF3168620B5330BA5C5514D57D85 PUSH1 0x40 MLOAD PUSH1 0x40 MLOAD DUP1 SWAP2 SUB SWAP1 LOG2 POP POP POP POP JUMP JUMPDEST PUSH1 0x1 ISZERO ISZERO PUSH1 0xC PUSH1 0x0 DUP5 PUSH20 0xFFFFFFFFFFFFFFFFFFFFFFFFFFFFFFFFFFFFFFFF AND PUSH20 0xFFFFFFFFFFFFFFFFFFFFFFFFFFFFFFFFFFFFFFFF AND DUP2 MSTORE PUSH1 0x20 ADD SWAP1 DUP2 MSTORE PUSH1 0x20 ADD PUSH1 0x0 KECCAK256 PUSH1 0x0 SWAP1 SLOAD SWAP1 PUSH2 0x100 EXP SWAP1 DIV PUSH1 0xFF AND ISZERO ISZERO EQ PUSH2 0x79B JUMPI PUSH1 0x40 MLOAD PUSH32 0x9FA61B6B00000000000000000000000000000000000000000000000000000000 DUP2 MSTORE PUSH1 0x4 ADD PUSH1 0x40 MLOAD DUP1 SWAP2 SUB SWAP1 REVERT JUMPDEST DUP1 PUSH1 0xB PUSH1 0x0 DUP5 PUSH20 0xFFFFFFFFFFFFFFFFFFFFFFFFFFFFFFFFFFFFFFFF AND PUSH20 0xFFFFFFFFFFFFFFFFFFFFFFFFFFFFFFFFFFFFFFFF AND DUP2 MSTORE PUSH1 0x20 ADD SWAP1 DUP2 MSTORE PUSH1 0x20 ADD PUSH1 0x0 KECCAK256 PUSH1 0x0 DUP3 DUP3 SLOAD PUSH2 0x7EA SWAP2 SWAP1 PUSH2 0x197B JUMP JUMPDEST SWAP3 POP POP DUP2 SWAP1 SSTORE POP DUP1 PUSH1 0xA PUSH1 0x0 DUP5 PUSH20 0xFFFFFFFFFFFFFFFFFFFFFFFFFFFFFFFFFFFFFFFF AND PUSH20 0xFFFFFFFFFFFFFFFFFFFFFFFFFFFFFFFFFFFFFFFF AND DUP2 MSTORE PUSH1 0x20 ADD SWAP1 DUP2 MSTORE PUSH1 0x20 ADD PUSH1 0x0 KECCAK256 PUSH1 0x0 DUP3 DUP3 SLOAD PUSH2 0x840 SWAP2 SWAP1 PUSH2 0x197B JUMP JUMPDEST SWAP3 POP POP DUP2 SWAP1 SSTORE POP PUSH1 0x4 SLOAD PUSH1 0xB PUSH1 0x0 DUP5 PUSH20 0xFFFFFFFFFFFFFFFFFFFFFFFFFFFFFFFFFFFFFFFF AND PUSH20 0xFFFFFFFFFFFFFFFFFFFFFFFFFFFFFFFFFFFFFFFF AND DUP2 MSTORE PUSH1 0x20 ADD SWAP1 DUP2 MSTORE PUSH1 0x20 ADD PUSH1 0x0 KECCAK256 SLOAD LT ISZERO PUSH2 0x8C2 JUMPI PUSH1 0x40 MLOAD PUSH32 0x36A5E99400000000000000000000000000000000000000000000000000000000 DUP2 MSTORE PUSH1 0x4 ADD PUSH1 0x40 MLOAD DUP1 SWAP2 SUB SWAP1 REVERT JUMPDEST PUSH1 0x4 SLOAD PUSH1 0xB PUSH1 0x0 DUP5 PUSH20 0xFFFFFFFFFFFFFFFFFFFFFFFFFFFFFFFFFFFFFFFF AND PUSH20 0xFFFFFFFFFFFFFFFFFFFFFFFFFFFFFFFFFFFFFFFF AND DUP2 MSTORE PUSH1 0x20 ADD SWAP1 DUP2 MSTORE PUSH1 0x20 ADD PUSH1 0x0 KECCAK256 SLOAD EQ ISZERO PUSH2 0x98C JUMPI PUSH1 0x5 DUP3 SWAP1 DUP1 PUSH1 0x1 DUP2 SLOAD ADD DUP1 DUP3 SSTORE DUP1 SWAP2 POP POP PUSH1 0x1 SWAP1 SUB SWAP1 PUSH1 0x0 MSTORE PUSH1 0x20 PUSH1 0x0 KECCAK256 ADD PUSH1 0x0 SWAP1 SWAP2 SWAP1 SWAP2 SWAP1 SWAP2 PUSH2 0x100 EXP DUP2 SLOAD DUP2 PUSH20 0xFFFFFFFFFFFFFFFFFFFFFFFFFFFFFFFFFFFFFFFF MUL NOT AND SWAP1 DUP4 PUSH20 0xFFFFFFFFFFFFFFFFFFFFFFFFFFFFFFFFFFFFFFFF AND MUL OR SWAP1 SSTORE POP PUSH1 0x5 DUP1 SLOAD SWAP1 POP PUSH1 0x1 SLOAD PUSH2 0x981 SWAP2 SWAP1 PUSH2 0x19D1 JUMP JUMPDEST PUSH1 0x3 DUP2 SWAP1 SSTORE POP PUSH2 0xA70 JUMP JUMPDEST DUP1 PUSH1 0x4 DUP2 SWAP1 SSTORE POP PUSH1 0x0 PUSH8 0xFFFFFFFFFFFFFFFF DUP2 GT ISZERO PUSH2 0x9AE JUMPI PUSH2 0x9AD PUSH2 0x1C88 JUMP JUMPDEST JUMPDEST PUSH1 0x40 MLOAD SWAP1 DUP1 DUP3 MSTORE DUP1 PUSH1 0x20 MUL PUSH1 0x20 ADD DUP3 ADD PUSH1 0x40 MSTORE DUP1 ISZERO PUSH2 0x9DC JUMPI DUP2 PUSH1 0x20 ADD PUSH1 0x20 DUP3 MUL DUP1 CALLDATASIZE DUP4 CALLDATACOPY DUP1 DUP3 ADD SWAP2 POP POP SWAP1 POP JUMPDEST POP PUSH1 0x5 SWAP1 DUP1 MLOAD SWAP1 PUSH1 0x20 ADD SWAP1 PUSH2 0x9F2 SWAP3 SWAP2 SWAP1 PUSH2 0x11EF JUMP JUMPDEST POP PUSH1 0x5 DUP3 SWAP1 DUP1 PUSH1 0x1 DUP2 SLOAD ADD DUP1 DUP3 SSTORE DUP1 SWAP2 POP POP PUSH1 0x1 SWAP1 SUB SWAP1 PUSH1 0x0 MSTORE PUSH1 0x20 PUSH1 0x0 KECCAK256 ADD PUSH1 0x0 SWAP1 SWAP2 SWAP1 SWAP2 SWAP1 SWAP2 PUSH2 0x100 EXP DUP2 SLOAD DUP2 PUSH20 0xFFFFFFFFFFFFFFFFFFFFFFFFFFFFFFFFFFFFFFFF MUL NOT AND SWAP1 DUP4 PUSH20 0xFFFFFFFFFFFFFFFFFFFFFFFFFFFFFFFFFFFFFFFF AND MUL OR SWAP1 SSTORE POP PUSH1 0x5 DUP1 SLOAD SWAP1 POP PUSH1 0x1 SLOAD PUSH2 0xA69 SWAP2 SWAP1 PUSH2 0x19D1 JUMP JUMPDEST PUSH1 0x3 DUP2 SWAP1 SSTORE POP JUMPDEST POP POP JUMP JUMPDEST PUSH1 0x0 PUSH1 0xA PUSH1 0x0 DUP4 PUSH20 0xFFFFFFFFFFFFFFFFFFFFFFFFFFFFFFFFFFFFFFFF AND PUSH20 0xFFFFFFFFFFFFFFFFFFFFFFFFFFFFFFFFFFFFFFFF AND DUP2 MSTORE PUSH1 0x20 ADD SWAP1 DUP2 MSTORE PUSH1 0x20 ADD PUSH1 0x0 KECCAK256 SLOAD SWAP1 POP SWAP2 SWAP1 POP JUMP JUMPDEST PUSH1 0x1 SLOAD DUP2 JUMP JUMPDEST PUSH1 0x60 PUSH1 0x2 DUP1 SLOAD DUP1 PUSH1 0x20 MUL PUSH1 0x20 ADD PUSH1 0x40 MLOAD SWAP1 DUP2 ADD PUSH1 0x40 MSTORE DUP1 SWAP3 SWAP2 SWAP1 DUP2 DUP2 MSTORE PUSH1 0x20 ADD DUP3 DUP1 SLOAD DUP1 ISZERO PUSH2 0xB47 JUMPI PUSH1 0x20 MUL DUP3 ADD SWAP2 SWAP1 PUSH1 0x0 MSTORE PUSH1 0x20 PUSH1 0x0 KECCAK256 SWAP1 JUMPDEST DUP2 PUSH1 0x0 SWAP1 SLOAD SWAP1 PUSH2 0x100 EXP SWAP1 DIV PUSH20 0xFFFFFFFFFFFFFFFFFFFFFFFFFFFFFFFFFFFFFFFF AND PUSH20 0xFFFFFFFFFFFFFFFFFFFFFFFFFFFFFFFFFFFFFFFF AND DUP2 MSTORE PUSH1 0x20 ADD SWAP1 PUSH1 0x1 ADD SWAP1 DUP1 DUP4 GT PUSH2 0xAFD JUMPI JUMPDEST POP POP POP POP POP SWAP1 POP SWAP1 JUMP JUMPDEST PUSH1 0x0 PUSH1 0x3 SLOAD SWAP1 POP SWAP1 JUMP JUMPDEST PUSH1 0x0 PUSH1 0x60 PUSH1 0x0 PUSH1 0x8 PUSH1 0x0 SWAP1 SLOAD SWAP1 PUSH2 0x100 EXP SWAP1 DIV PUSH1 0xFF AND PUSH1 0x1 DUP2 GT ISZERO PUSH2 0xB83 JUMPI PUSH2 0xB82 PUSH2 0x1C2A JUMP JUMPDEST JUMPDEST PUSH1 0x0 PUSH1 0x1 DUP2 GT ISZERO PUSH2 0xB97 JUMPI PUSH2 0xB96 PUSH2 0x1C2A JUMP JUMPDEST JUMPDEST EQ SWAP1 POP PUSH1 0x0 PUSH32 0x0 PUSH1 0x9 SLOAD TIMESTAMP PUSH2 0xBCB SWAP2 SWAP1 PUSH2 0x1A02 JUMP JUMPDEST GT SWAP1 POP DUP1 DUP1 ISZERO PUSH2 0xBD8 JUMPI POP DUP2 JUMPDEST SWAP4 POP DUP4 PUSH1 0x40 MLOAD DUP1 PUSH1 0x40 ADD PUSH1 0x40 MSTORE DUP1 PUSH1 0x3 DUP2 MSTORE PUSH1 0x20 ADD PUSH32 0x3078300000000000000000000000000000000000000000000000000000000000 DUP2 MSTORE POP SWAP4 POP SWAP4 POP POP POP SWAP2 POP SWAP2 JUMP JUMPDEST PUSH1 0x0 PUSH32 0x0 SWAP1 POP SWAP1 JUMP JUMPDEST PUSH1 0x4 SLOAD DUP2 JUMP JUMPDEST PUSH32 0x0 CALLVALUE EQ PUSH2 0xCA3 JUMPI PUSH1 0x40 MLOAD PUSH32 0x9B0D899A00000000000000000000000000000000000000000000000000000000 DUP2 MSTORE PUSH1 0x4 ADD PUSH1 0x40 MLOAD DUP1 SWAP2 SUB SWAP1 REVERT JUMPDEST PUSH1 0x2 CALLER SWAP1 DUP1 PUSH1 0x1 DUP2 SLOAD ADD DUP1 DUP3 SSTORE DUP1 SWAP2 POP POP PUSH1 0x1 SWAP1 SUB SWAP1 PUSH1 0x0 MSTORE PUSH1 0x20 PUSH1 0x0 KECCAK256 ADD PUSH1 0x0 SWAP1 SWAP2 SWAP1 SWAP2 SWAP1 SWAP2 PUSH2 0x100 EXP DUP2 SLOAD DUP2 PUSH20 0xFFFFFFFFFFFFFFFFFFFFFFFFFFFFFFFFFFFFFFFF MUL NOT AND SWAP1 DUP4 PUSH20 0xFFFFFFFFFFFFFFFFFFFFFFFFFFFFFFFFFFFFFFFF AND MUL OR SWAP1 SSTORE POP CALLVALUE PUSH1 0x1 PUSH1 0x0 DUP3 DUP3 SLOAD PUSH2 0xD18 SWAP2 SWAP1 PUSH2 0x197B JUMP JUMPDEST SWAP3 POP POP DUP2 SWAP1 SSTORE POP PUSH1 0x1 PUSH1 0xC PUSH1 0x0 CALLER PUSH20 0xFFFFFFFFFFFFFFFFFFFFFFFFFFFFFFFFFFFFFFFF AND PUSH20 0xFFFFFFFFFFFFFFFFFFFFFFFFFFFFFFFFFFFFFFFF AND DUP2 MSTORE PUSH1 0x20 ADD SWAP1 DUP2 MSTORE PUSH1 0x20 ADD PUSH1 0x0 KECCAK256 PUSH1 0x0 PUSH2 0x100 EXP DUP2 SLOAD DUP2 PUSH1 0xFF MUL NOT AND SWAP1 DUP4 ISZERO ISZERO MUL OR SWAP1 SSTORE POP CALLER PUSH20 0xFFFFFFFFFFFFFFFFFFFFFFFFFFFFFFFFFFFFFFFF AND PUSH32 0x970F4396869F233C8ED5D8298CD4C285AD5BB9EE51F3143B146BCCAD8943903D PUSH1 0x40 MLOAD PUSH1 0x40 MLOAD DUP1 SWAP2 SUB SWAP1 LOG2 PUSH1 0x0 PUSH1 0x1 DUP2 GT ISZERO PUSH2 0xDCE JUMPI PUSH2 0xDCD PUSH2 0x1C2A JUMP JUMPDEST JUMPDEST PUSH1 0x8 PUSH1 0x0 SWAP1 SLOAD SWAP1 PUSH2 0x100 EXP SWAP1 DIV PUSH1 0xFF AND PUSH1 0x1 DUP2 GT ISZERO PUSH2 0xDF0 JUMPI PUSH2 0xDEF PUSH2 0x1C2A JUMP JUMPDEST JUMPDEST EQ PUSH2 0xE27 JUMPI PUSH1 0x40 MLOAD PUSH32 0xEB4ED6A900000000000000000000000000000000000000000000000000000000 DUP2 MSTORE PUSH1 0x4 ADD PUSH1 0x40 MLOAD DUP1 SWAP2 SUB SWAP1 REVERT JUMPDEST JUMP JUMPDEST PUSH1 0x3 SLOAD DUP2 JUMP JUMPDEST PUSH1 0x0 CALLVALUE GT ISZERO PUSH2 0xE6A JUMPI PUSH1 0x40 MLOAD PUSH32 0x5B966E5D00000000000000000000000000000000000000000000000000000000 DUP2 MSTORE PUSH1 0x4 ADD PUSH1 0x40 MLOAD DUP1 SWAP2 SUB SWAP1 REVERT JUMPDEST PUSH1 0x0 JUMPDEST PUSH1 0x5 DUP1 SLOAD SWAP1 POP DUP2 LT ISZERO PUSH2 0xF14 JUMPI PUSH1 0x5 DUP2 DUP2 SLOAD DUP2 LT PUSH2 0xE8E JUMPI PUSH2 0xE8D PUSH2 0x1C59 JUMP JUMPDEST JUMPDEST SWAP1 PUSH1 0x0 MSTORE PUSH1 0x20 PUSH1 0x0 KECCAK256 ADD PUSH1 0x0 SWAP1 SLOAD SWAP1 PUSH2 0x100 EXP SWAP1 DIV PUSH20 0xFFFFFFFFFFFFFFFFFFFFFFFFFFFFFFFFFFFFFFFF AND PUSH20 0xFFFFFFFFFFFFFFFFFFFFFFFFFFFFFFFFFFFFFFFF AND PUSH2 0x8FC PUSH1 0x3 SLOAD SWAP1 DUP2 ISZERO MUL SWAP1 PUSH1 0x40 MLOAD PUSH1 0x0 PUSH1 0x40 MLOAD DUP1 DUP4 SUB DUP2 DUP6 DUP9 DUP9 CALL SWAP4 POP POP POP POP ISZERO DUP1 ISZERO PUSH2 0xF00 JUMPI RETURNDATASIZE PUSH1 0x0 DUP1 RETURNDATACOPY RETURNDATASIZE PUSH1 0x0 REVERT JUMPDEST POP DUP1 DUP1 PUSH2 0xF0C SWAP1 PUSH2 0x1B52 JUMP JUMPDEST SWAP2 POP POP PUSH2 0xE6D JUMP JUMPDEST POP PUSH1 0x0 PUSH1 0x1 DUP2 SWAP1 SSTORE POP PUSH1 0x0 PUSH8 0xFFFFFFFFFFFFFFFF DUP2 GT ISZERO PUSH2 0xF38 JUMPI PUSH2 0xF37 PUSH2 0x1C88 JUMP JUMPDEST JUMPDEST PUSH1 0x40 MLOAD SWAP1 DUP1 DUP3 MSTORE DUP1 PUSH1 0x20 MUL PUSH1 0x20 ADD DUP3 ADD PUSH1 0x40 MSTORE DUP1 ISZERO PUSH2 0xF66 JUMPI DUP2 PUSH1 0x20 ADD PUSH1 0x20 DUP3 MUL DUP1 CALLDATASIZE DUP4 CALLDATACOPY DUP1 DUP3 ADD SWAP2 POP POP SWAP1 POP JUMPDEST POP PUSH1 0x5 SWAP1 DUP1 MLOAD SWAP1 PUSH1 0x20 ADD SWAP1 PUSH2 0xF7C SWAP3 SWAP2 SWAP1 PUSH2 0x11EF JUMP JUMPDEST POP PUSH1 0x0 PUSH8 0xFFFFFFFFFFFFFFFF DUP2 GT ISZERO PUSH2 0xF98 JUMPI PUSH2 0xF97 PUSH2 0x1C88 JUMP JUMPDEST JUMPDEST PUSH1 0x40 MLOAD SWAP1 DUP1 DUP3 MSTORE DUP1 PUSH1 0x20 MUL PUSH1 0x20 ADD DUP3 ADD PUSH1 0x40 MSTORE DUP1 ISZERO PUSH2 0xFC6 JUMPI DUP2 PUSH1 0x20 ADD PUSH1 0x20 DUP3 MUL DUP1 CALLDATASIZE DUP4 CALLDATACOPY DUP1 DUP3 ADD SWAP2 POP POP SWAP1 POP JUMPDEST POP PUSH1 0x2 SWAP1 DUP1 MLOAD SWAP1 PUSH1 0x20 ADD SWAP1 PUSH2 0xFDC SWAP3 SWAP2 SWAP1 PUSH2 0x1279 JUMP JUMPDEST POP PUSH1 0x0 PUSH1 0x6 DUP2 SWAP1 SSTORE POP TIMESTAMP PUSH1 0x9 DUP2 SWAP1 SSTORE POP JUMP JUMPDEST PUSH1 0x6 SLOAD DUP2 JUMP JUMPDEST PUSH1 0x0 DUP1 SLOAD SWAP1 PUSH2 0x100 EXP SWAP1 DIV PUSH20 0xFFFFFFFFFFFFFFFFFFFFFFFFFFFFFFFFFFFFFFFF AND DUP2 JUMP JUMPDEST PUSH1 0x60 PUSH1 0x0 PUSH1 0x3 SLOAD EQ ISZERO PUSH2 0x1057 JUMPI PUSH1 0x40 MLOAD PUSH32 0x6D2C5A5400000000000000000000000000000000000000000000000000000000 DUP2 MSTORE PUSH1 0x4 ADD PUSH1 0x40 MLOAD DUP1 SWAP2 SUB SWAP1 REVERT JUMPDEST PUSH1 0x5 DUP1 SLOAD DUP1 PUSH1 0x20 MUL PUSH1 0x20 ADD PUSH1 0x40 MLOAD SWAP1 DUP2 ADD PUSH1 0x40 MSTORE DUP1 SWAP3 SWAP2 SWAP1 DUP2 DUP2 MSTORE PUSH1 0x20 ADD DUP3 DUP1 SLOAD DUP1 ISZERO PUSH2 0x10D9 JUMPI PUSH1 0x20 MUL DUP3 ADD SWAP2 SWAP1 PUSH1 0x0 MSTORE PUSH1 0x20 PUSH1 0x0 KECCAK256 SWAP1 JUMPDEST DUP2 PUSH1 0x0 SWAP1 SLOAD SWAP1 PUSH2 0x100 EXP SWAP1 DIV PUSH20 0xFFFFFFFFFFFFFFFFFFFFFFFFFFFFFFFFFFFFFFFF AND PUSH20 0xFFFFFFFFFFFFFFFFFFFFFFFFFFFFFFFFFFFFFFFF AND DUP2 MSTORE PUSH1 0x20 ADD SWAP1 PUSH1 0x1 ADD SWAP1 DUP1 DUP4 GT PUSH2 0x108F JUMPI JUMPDEST POP POP POP POP POP SWAP1 POP SWAP1 JUMP JUMPDEST PUSH1 0x0 PUSH1 0xB PUSH1 0x0 DUP4 PUSH20 0xFFFFFFFFFFFFFFFFFFFFFFFFFFFFFFFFFFFFFFFF AND PUSH20 0xFFFFFFFFFFFFFFFFFFFFFFFFFFFFFFFFFFFFFFFF AND DUP2 MSTORE PUSH1 0x20 ADD SWAP1 DUP2 MSTORE PUSH1 0x20 ADD PUSH1 0x0 KECCAK256 SLOAD SWAP1 POP SWAP2 SWAP1 POP JUMP JUMPDEST PUSH1 0x1 PUSH1 0x64 DUP3 PUSH1 0x0 DUP2 MLOAD DUP2 LT PUSH2 0x1144 JUMPI PUSH2 0x1143 PUSH2 0x1C59 JUMP JUMPDEST JUMPDEST PUSH1 0x20 MUL PUSH1 0x20 ADD ADD MLOAD PUSH2 0x1156 SWAP2 SWAP1 PUSH2 0x1B9B JUMP JUMPDEST PUSH2 0x1160 SWAP2 SWAP1 PUSH2 0x197B JUMP JUMPDEST PUSH1 0x6 DUP2 SWAP1 SSTORE POP PUSH1 0x7 PUSH1 0x6 SLOAD SWAP1 DUP1 PUSH1 0x1 DUP2 SLOAD ADD DUP1 DUP3 SSTORE DUP1 SWAP2 POP POP PUSH1 0x1 SWAP1 SUB SWAP1 PUSH1 0x0 MSTORE PUSH1 0x20 PUSH1 0x0 KECCAK256 ADD PUSH1 0x0 SWAP1 SWAP2 SWAP1 SWAP2 SWAP1 SWAP2 POP SSTORE PUSH1 0x6 SLOAD PUSH32 0x75C61172A72AC1EBEFDF79E15DCF7FF41E653B7F28CDB30B99527C8E2C805045 PUSH1 0x40 MLOAD PUSH1 0x40 MLOAD DUP1 SWAP2 SUB SWAP1 LOG2 PUSH1 0x0 PUSH1 0x8 PUSH1 0x0 PUSH2 0x100 EXP DUP2 SLOAD DUP2 PUSH1 0xFF MUL NOT AND SWAP1 DUP4 PUSH1 0x1 DUP2 GT ISZERO PUSH2 0x11E6 JUMPI PUSH2 0x11E5 PUSH2 0x1C2A JUMP JUMPDEST JUMPDEST MUL OR SWAP1 SSTORE POP POP POP JUMP JUMPDEST DUP3 DUP1 SLOAD DUP3 DUP3 SSTORE SWAP1 PUSH1 0x0 MSTORE PUSH1 0x20 PUSH1 0x0 KECCAK256 SWAP1 DUP2 ADD SWAP3 DUP3 ISZERO PUSH2 0x1268 JUMPI SWAP2 PUSH1 0x20 MUL DUP3 ADD JUMPDEST DUP3 DUP2 GT ISZERO PUSH2 0x1267 JUMPI DUP3 MLOAD DUP3 PUSH1 0x0 PUSH2 0x100 EXP DUP2 SLOAD DUP2 PUSH20 0xFFFFFFFFFFFFFFFFFFFFFFFFFFFFFFFFFFFFFFFF MUL NOT AND SWAP1 DUP4 PUSH20 0xFFFFFFFFFFFFFFFFFFFFFFFFFFFFFFFFFFFFFFFF AND MUL OR SWAP1 SSTORE POP SWAP2 PUSH1 0x20 ADD SWAP2 SWAP1 PUSH1 0x1 ADD SWAP1 PUSH2 0x120F JUMP JUMPDEST JUMPDEST POP SWAP1 POP PUSH2 0x1275 SWAP2 SWAP1 PUSH2 0x1303 JUMP JUMPDEST POP SWAP1 JUMP JUMPDEST DUP3 DUP1 SLOAD DUP3 DUP3 SSTORE SWAP1 PUSH1 0x0 MSTORE PUSH1 0x20 PUSH1 0x0 KECCAK256 SWAP1 DUP2 ADD SWAP3 DUP3 ISZERO PUSH2 0x12F2 JUMPI SWAP2 PUSH1 0x20 MUL DUP3 ADD JUMPDEST DUP3 DUP2 GT ISZERO PUSH2 0x12F1 JUMPI DUP3 MLOAD DUP3 PUSH1 0x0 PUSH2 0x100 EXP DUP2 SLOAD DUP2 PUSH20 0xFFFFFFFFFFFFFFFFFFFFFFFFFFFFFFFFFFFFFFFF MUL NOT AND SWAP1 DUP4 PUSH20 0xFFFFFFFFFFFFFFFFFFFFFFFFFFFFFFFFFFFFFFFF AND MUL OR SWAP1 SSTORE POP SWAP2 PUSH1 0x20 ADD SWAP2 SWAP1 PUSH1 0x1 ADD SWAP1 PUSH2 0x1299 JUMP JUMPDEST JUMPDEST POP SWAP1 POP PUSH2 0x12FF SWAP2 SWAP1 PUSH2 0x1303 JUMP JUMPDEST POP SWAP1 JUMP JUMPDEST JUMPDEST DUP1 DUP3 GT ISZERO PUSH2 0x131C JUMPI PUSH1 0x0 DUP2 PUSH1 0x0 SWAP1 SSTORE POP PUSH1 0x1 ADD PUSH2 0x1304 JUMP JUMPDEST POP SWAP1 JUMP JUMPDEST PUSH1 0x0 PUSH2 0x1333 PUSH2 0x132E DUP5 PUSH2 0x18C9 JUMP JUMPDEST PUSH2 0x18A4 JUMP JUMPDEST SWAP1 POP DUP1 DUP4 DUP3 MSTORE PUSH1 0x20 DUP3 ADD SWAP1 POP DUP3 DUP6 PUSH1 0x20 DUP7 MUL DUP3 ADD GT ISZERO PUSH2 0x1356 JUMPI PUSH2 0x1355 PUSH2 0x1CC1 JUMP JUMPDEST JUMPDEST PUSH1 0x0 JUMPDEST DUP6 DUP2 LT ISZERO PUSH2 0x1386 JUMPI DUP2 PUSH2 0x136C DUP9 DUP3 PUSH2 0x1499 JUMP JUMPDEST DUP5 MSTORE PUSH1 0x20 DUP5 ADD SWAP4 POP PUSH1 0x20 DUP4 ADD SWAP3 POP POP PUSH1 0x1 DUP2 ADD SWAP1 POP PUSH2 0x1359 JUMP JUMPDEST POP POP POP SWAP4 SWAP3 POP POP POP JUMP JUMPDEST PUSH1 0x0 PUSH2 0x13A3 PUSH2 0x139E DUP5 PUSH2 0x18F5 JUMP JUMPDEST PUSH2 0x18A4 JUMP JUMPDEST SWAP1 POP DUP3 DUP2 MSTORE PUSH1 0x20 DUP2 ADD DUP5 DUP5 DUP5 ADD GT ISZERO PUSH2 0x13BF JUMPI PUSH2 0x13BE PUSH2 0x1CC6 JUMP JUMPDEST JUMPDEST PUSH2 0x13CA DUP5 DUP3 DUP6 PUSH2 0x1ADF JUMP JUMPDEST POP SWAP4 SWAP3 POP POP POP JUMP JUMPDEST PUSH1 0x0 DUP2 CALLDATALOAD SWAP1 POP PUSH2 0x13E1 DUP2 PUSH2 0x1CFA JUMP JUMPDEST SWAP3 SWAP2 POP POP JUMP JUMPDEST PUSH1 0x0 DUP3 PUSH1 0x1F DUP4 ADD SLT PUSH2 0x13FC JUMPI PUSH2 0x13FB PUSH2 0x1CBC JUMP JUMPDEST JUMPDEST DUP2 CALLDATALOAD PUSH2 0x140C DUP5 DUP3 PUSH1 0x20 DUP7 ADD PUSH2 0x1320 JUMP JUMPDEST SWAP2 POP POP SWAP3 SWAP2 POP POP JUMP JUMPDEST PUSH1 0x0 DUP1 DUP4 PUSH1 0x1F DUP5 ADD SLT PUSH2 0x142B JUMPI PUSH2 0x142A PUSH2 0x1CBC JUMP JUMPDEST JUMPDEST DUP3 CALLDATALOAD SWAP1 POP PUSH8 0xFFFFFFFFFFFFFFFF DUP2 GT ISZERO PUSH2 0x1448 JUMPI PUSH2 0x1447 PUSH2 0x1CB7 JUMP JUMPDEST JUMPDEST PUSH1 0x20 DUP4 ADD SWAP2 POP DUP4 PUSH1 0x1 DUP3 MUL DUP4 ADD GT ISZERO PUSH2 0x1464 JUMPI PUSH2 0x1463 PUSH2 0x1CC1 JUMP JUMPDEST JUMPDEST SWAP3 POP SWAP3 SWAP1 POP JUMP JUMPDEST PUSH1 0x0 DUP3 PUSH1 0x1F DUP4 ADD SLT PUSH2 0x1480 JUMPI PUSH2 0x147F PUSH2 0x1CBC JUMP JUMPDEST JUMPDEST DUP2 CALLDATALOAD PUSH2 0x1490 DUP5 DUP3 PUSH1 0x20 DUP7 ADD PUSH2 0x1390 JUMP JUMPDEST SWAP2 POP POP SWAP3 SWAP2 POP POP JUMP JUMPDEST PUSH1 0x0 DUP2 CALLDATALOAD SWAP1 POP PUSH2 0x14A8 DUP2 PUSH2 0x1D11 JUMP JUMPDEST SWAP3 SWAP2 POP POP JUMP JUMPDEST PUSH1 0x0 DUP2 MLOAD SWAP1 POP PUSH2 0x14BD DUP2 PUSH2 0x1D11 JUMP JUMPDEST SWAP3 SWAP2 POP POP JUMP JUMPDEST PUSH1 0x0 PUSH1 0x20 DUP3 DUP5 SUB SLT ISZERO PUSH2 0x14D9 JUMPI PUSH2 0x14D8 PUSH2 0x1CD0 JUMP JUMPDEST JUMPDEST PUSH1 0x0 PUSH2 0x14E7 DUP5 DUP3 DUP6 ADD PUSH2 0x13D2 JUMP JUMPDEST SWAP2 POP POP SWAP3 SWAP2 POP POP JUMP JUMPDEST PUSH1 0x0 DUP1 PUSH1 0x40 DUP4 DUP6 SUB SLT ISZERO PUSH2 0x1507 JUMPI PUSH2 0x1506 PUSH2 0x1CD0 JUMP JUMPDEST JUMPDEST PUSH1 0x0 PUSH2 0x1515 DUP6 DUP3 DUP7 ADD PUSH2 0x13D2 JUMP JUMPDEST SWAP3 POP POP PUSH1 0x20 PUSH2 0x1526 DUP6 DUP3 DUP7 ADD PUSH2 0x1499 JUMP JUMPDEST SWAP2 POP POP SWAP3 POP SWAP3 SWAP1 POP JUMP JUMPDEST PUSH1 0x0 DUP1 PUSH1 0x20 DUP4 DUP6 SUB SLT ISZERO PUSH2 0x1547 JUMPI PUSH2 0x1546 PUSH2 0x1CD0 JUMP JUMPDEST JUMPDEST PUSH1 0x0 DUP4 ADD CALLDATALOAD PUSH8 0xFFFFFFFFFFFFFFFF DUP2 GT ISZERO PUSH2 0x1565 JUMPI PUSH2 0x1564 PUSH2 0x1CCB JUMP JUMPDEST JUMPDEST PUSH2 0x1571 DUP6 DUP3 DUP7 ADD PUSH2 0x1415 JUMP JUMPDEST SWAP3 POP SWAP3 POP POP SWAP3 POP SWAP3 SWAP1 POP JUMP JUMPDEST PUSH1 0x0 PUSH1 0x20 DUP3 DUP5 SUB SLT ISZERO PUSH2 0x1593 JUMPI PUSH2 0x1592 PUSH2 0x1CD0 JUMP JUMPDEST JUMPDEST PUSH1 0x0 DUP3 ADD CALLDATALOAD PUSH8 0xFFFFFFFFFFFFFFFF DUP2 GT ISZERO PUSH2 0x15B1 JUMPI PUSH2 0x15B0 PUSH2 0x1CCB JUMP JUMPDEST JUMPDEST PUSH2 0x15BD DUP5 DUP3 DUP6 ADD PUSH2 0x146B JUMP JUMPDEST SWAP2 POP POP SWAP3 SWAP2 POP POP JUMP JUMPDEST PUSH1 0x0 PUSH1 0x20 DUP3 DUP5 SUB SLT ISZERO PUSH2 0x15DC JUMPI PUSH2 0x15DB PUSH2 0x1CD0 JUMP JUMPDEST JUMPDEST PUSH1 0x0 PUSH2 0x15EA DUP5 DUP3 DUP6 ADD PUSH2 0x14AE JUMP JUMPDEST SWAP2 POP POP SWAP3 SWAP2 POP POP JUMP JUMPDEST PUSH1 0x0 DUP1 PUSH1 0x40 DUP4 DUP6 SUB SLT ISZERO PUSH2 0x160A JUMPI PUSH2 0x1609 PUSH2 0x1CD0 JUMP JUMPDEST JUMPDEST PUSH1 0x0 PUSH2 0x1618 DUP6 DUP3 DUP7 ADD PUSH2 0x1499 JUMP JUMPDEST SWAP3 POP POP PUSH1 0x20 DUP4 ADD CALLDATALOAD PUSH8 0xFFFFFFFFFFFFFFFF DUP2 GT ISZERO PUSH2 0x1639 JUMPI PUSH2 0x1638 PUSH2 0x1CCB JUMP JUMPDEST JUMPDEST PUSH2 0x1645 DUP6 DUP3 DUP7 ADD PUSH2 0x13E7 JUMP JUMPDEST SWAP2 POP POP SWAP3 POP SWAP3 SWAP1 POP JUMP JUMPDEST PUSH1 0x0 PUSH2 0x165B DUP4 DUP4 PUSH2 0x1667 JUMP JUMPDEST PUSH1 0x20 DUP4 ADD SWAP1 POP SWAP3 SWAP2 POP POP JUMP JUMPDEST PUSH2 0x1670 DUP2 PUSH2 0x1A36 JUMP JUMPDEST DUP3 MSTORE POP POP JUMP JUMPDEST PUSH2 0x167F DUP2 PUSH2 0x1A36 JUMP JUMPDEST DUP3 MSTORE POP POP JUMP JUMPDEST PUSH1 0x0 PUSH2 0x1690 DUP3 PUSH2 0x1936 JUMP JUMPDEST PUSH2 0x169A DUP2 DUP6 PUSH2 0x1959 JUMP JUMPDEST SWAP4 POP PUSH2 0x16A5 DUP4 PUSH2 0x1926 JUMP JUMPDEST DUP1 PUSH1 0x0 JUMPDEST DUP4 DUP2 LT ISZERO PUSH2 0x16D6 JUMPI DUP2 MLOAD PUSH2 0x16BD DUP9 DUP3 PUSH2 0x164F JUMP JUMPDEST SWAP8 POP PUSH2 0x16C8 DUP4 PUSH2 0x194C JUMP JUMPDEST SWAP3 POP POP PUSH1 0x1 DUP2 ADD SWAP1 POP PUSH2 0x16A9 JUMP JUMPDEST POP DUP6 SWAP4 POP POP POP POP SWAP3 SWAP2 POP POP JUMP JUMPDEST PUSH2 0x16EC DUP2 PUSH2 0x1A48 JUMP JUMPDEST DUP3 MSTORE POP POP JUMP JUMPDEST PUSH2 0x16FB DUP2 PUSH2 0x1A54 JUMP JUMPDEST DUP3 MSTORE POP POP JUMP JUMPDEST PUSH1 0x0 PUSH2 0x170C DUP3 PUSH2 0x1941 JUMP JUMPDEST PUSH2 0x1716 DUP2 DUP6 PUSH2 0x196A JUMP JUMPDEST SWAP4 POP PUSH2 0x1726 DUP2 DUP6 PUSH1 0x20 DUP7 ADD PUSH2 0x1AEE JUMP JUMPDEST PUSH2 0x172F DUP2 PUSH2 0x1CD5 JUMP JUMPDEST DUP5 ADD SWAP2 POP POP SWAP3 SWAP2 POP POP JUMP JUMPDEST PUSH2 0x1743 DUP2 PUSH2 0x1ACD JUMP JUMPDEST DUP3 MSTORE POP POP JUMP JUMPDEST PUSH2 0x1752 DUP2 PUSH2 0x1A71 JUMP JUMPDEST DUP3 MSTORE POP POP JUMP JUMPDEST PUSH2 0x1761 DUP2 PUSH2 0x1A9F JUMP JUMPDEST DUP3 MSTORE POP POP JUMP JUMPDEST PUSH2 0x1770 DUP2 PUSH2 0x1AA9 JUMP JUMPDEST DUP3 MSTORE POP POP JUMP JUMPDEST PUSH2 0x177F DUP2 PUSH2 0x1AB9 JUMP JUMPDEST DUP3 MSTORE POP POP JUMP JUMPDEST PUSH1 0x0 PUSH1 0x20 DUP3 ADD SWAP1 POP PUSH2 0x179A PUSH1 0x0 DUP4 ADD DUP5 PUSH2 0x1676 JUMP JUMPDEST SWAP3 SWAP2 POP POP JUMP JUMPDEST PUSH1 0x0 PUSH1 0x40 DUP3 ADD SWAP1 POP PUSH2 0x17B5 PUSH1 0x0 DUP4 ADD DUP6 PUSH2 0x1676 JUMP JUMPDEST PUSH2 0x17C2 PUSH1 0x20 DUP4 ADD DUP5 PUSH2 0x1676 JUMP JUMPDEST SWAP4 SWAP3 POP POP POP JUMP JUMPDEST PUSH1 0x0 PUSH1 0x20 DUP3 ADD SWAP1 POP DUP2 DUP2 SUB PUSH1 0x0 DUP4 ADD MSTORE PUSH2 0x17E3 DUP2 DUP5 PUSH2 0x1685 JUMP JUMPDEST SWAP1 POP SWAP3 SWAP2 POP POP JUMP JUMPDEST PUSH1 0x0 PUSH1 0x40 DUP3 ADD SWAP1 POP PUSH2 0x1800 PUSH1 0x0 DUP4 ADD DUP6 PUSH2 0x16E3 JUMP JUMPDEST DUP2 DUP2 SUB PUSH1 0x20 DUP4 ADD MSTORE PUSH2 0x1812 DUP2 DUP5 PUSH2 0x1701 JUMP JUMPDEST SWAP1 POP SWAP4 SWAP3 POP POP POP JUMP JUMPDEST PUSH1 0x0 PUSH1 0xA0 DUP3 ADD SWAP1 POP PUSH2 0x1830 PUSH1 0x0 DUP4 ADD DUP9 PUSH2 0x16F2 JUMP JUMPDEST PUSH2 0x183D PUSH1 0x20 DUP4 ADD DUP8 PUSH2 0x1776 JUMP JUMPDEST PUSH2 0x184A PUSH1 0x40 DUP4 ADD DUP7 PUSH2 0x1749 JUMP JUMPDEST PUSH2 0x1857 PUSH1 0x60 DUP4 ADD DUP6 PUSH2 0x1767 JUMP JUMPDEST PUSH2 0x1864 PUSH1 0x80 DUP4 ADD DUP5 PUSH2 0x1767 JUMP JUMPDEST SWAP7 SWAP6 POP POP POP POP POP POP JUMP JUMPDEST PUSH1 0x0 PUSH1 0x20 DUP3 ADD SWAP1 POP PUSH2 0x1883 PUSH1 0x0 DUP4 ADD DUP5 PUSH2 0x173A JUMP JUMPDEST SWAP3 SWAP2 POP POP JUMP JUMPDEST PUSH1 0x0 PUSH1 0x20 DUP3 ADD SWAP1 POP PUSH2 0x189E PUSH1 0x0 DUP4 ADD DUP5 PUSH2 0x1758 JUMP JUMPDEST SWAP3 SWAP2 POP POP JUMP JUMPDEST PUSH1 0x0 PUSH2 0x18AE PUSH2 0x18BF JUMP JUMPDEST SWAP1 POP PUSH2 0x18BA DUP3 DUP3 PUSH2 0x1B21 JUMP JUMPDEST SWAP2 SWAP1 POP JUMP JUMPDEST PUSH1 0x0 PUSH1 0x40 MLOAD SWAP1 POP SWAP1 JUMP JUMPDEST PUSH1 0x0 PUSH8 0xFFFFFFFFFFFFFFFF DUP3 GT ISZERO PUSH2 0x18E4 JUMPI PUSH2 0x18E3 PUSH2 0x1C88 JUMP JUMPDEST JUMPDEST PUSH1 0x20 DUP3 MUL SWAP1 POP PUSH1 0x20 DUP2 ADD SWAP1 POP SWAP2 SWAP1 POP JUMP JUMPDEST PUSH1 0x0 PUSH8 0xFFFFFFFFFFFFFFFF DUP3 GT ISZERO PUSH2 0x1910 JUMPI PUSH2 0x190F PUSH2 0x1C88 JUMP JUMPDEST JUMPDEST PUSH2 0x1919 DUP3 PUSH2 0x1CD5 JUMP JUMPDEST SWAP1 POP PUSH1 0x20 DUP2 ADD SWAP1 POP SWAP2 SWAP1 POP JUMP JUMPDEST PUSH1 0x0 DUP2 SWAP1 POP PUSH1 0x20 DUP3 ADD SWAP1 POP SWAP2 SWAP1 POP JUMP JUMPDEST PUSH1 0x0 DUP2 MLOAD SWAP1 POP SWAP2 SWAP1 POP JUMP JUMPDEST PUSH1 0x0 DUP2 MLOAD SWAP1 POP SWAP2 SWAP1 POP JUMP JUMPDEST PUSH1 0x0 PUSH1 0x20 DUP3 ADD SWAP1 POP SWAP2 SWAP1 POP JUMP JUMPDEST PUSH1 0x0 DUP3 DUP3 MSTORE PUSH1 0x20 DUP3 ADD SWAP1 POP SWAP3 SWAP2 POP POP JUMP JUMPDEST PUSH1 0x0 DUP3 DUP3 MSTORE PUSH1 0x20 DUP3 ADD SWAP1 POP SWAP3 SWAP2 POP POP JUMP JUMPDEST PUSH1 0x0 PUSH2 0x1986 DUP3 PUSH2 0x1A9F JUMP JUMPDEST SWAP2 POP PUSH2 0x1991 DUP4 PUSH2 0x1A9F JUMP JUMPDEST SWAP3 POP DUP3 PUSH32 0xFFFFFFFFFFFFFFFFFFFFFFFFFFFFFFFFFFFFFFFFFFFFFFFFFFFFFFFFFFFFFFFF SUB DUP3 GT ISZERO PUSH2 0x19C6 JUMPI PUSH2 0x19C5 PUSH2 0x1BCC JUMP JUMPDEST JUMPDEST DUP3 DUP3 ADD SWAP1 POP SWAP3 SWAP2 POP POP JUMP JUMPDEST PUSH1 0x0 PUSH2 0x19DC DUP3 PUSH2 0x1A9F JUMP JUMPDEST SWAP2 POP PUSH2 0x19E7 DUP4 PUSH2 0x1A9F JUMP JUMPDEST SWAP3 POP DUP3 PUSH2 0x19F7 JUMPI PUSH2 0x19F6 PUSH2 0x1BFB JUMP JUMPDEST JUMPDEST DUP3 DUP3 DIV SWAP1 POP SWAP3 SWAP2 POP POP JUMP JUMPDEST PUSH1 0x0 PUSH2 0x1A0D DUP3 PUSH2 0x1A9F JUMP JUMPDEST SWAP2 POP PUSH2 0x1A18 DUP4 PUSH2 0x1A9F JUMP JUMPDEST SWAP3 POP DUP3 DUP3 LT ISZERO PUSH2 0x1A2B JUMPI PUSH2 0x1A2A PUSH2 0x1BCC JUMP JUMPDEST JUMPDEST DUP3 DUP3 SUB SWAP1 POP SWAP3 SWAP2 POP POP JUMP JUMPDEST PUSH1 0x0 PUSH2 0x1A41 DUP3 PUSH2 0x1A7F JUMP JUMPDEST SWAP1 POP SWAP2 SWAP1 POP JUMP JUMPDEST PUSH1 0x0 DUP2 ISZERO ISZERO SWAP1 POP SWAP2 SWAP1 POP JUMP JUMPDEST PUSH1 0x0 DUP2 SWAP1 POP SWAP2 SWAP1 POP JUMP JUMPDEST PUSH1 0x0 DUP2 SWAP1 POP PUSH2 0x1A6C DUP3 PUSH2 0x1CE6 JUMP JUMPDEST SWAP2 SWAP1 POP JUMP JUMPDEST PUSH1 0x0 PUSH2 0xFFFF DUP3 AND SWAP1 POP SWAP2 SWAP1 POP JUMP JUMPDEST PUSH1 0x0 PUSH20 0xFFFFFFFFFFFFFFFFFFFFFFFFFFFFFFFFFFFFFFFF DUP3 AND SWAP1 POP SWAP2 SWAP1 POP JUMP JUMPDEST PUSH1 0x0 DUP2 SWAP1 POP SWAP2 SWAP1 POP JUMP JUMPDEST PUSH1 0x0 PUSH4 0xFFFFFFFF DUP3 AND SWAP1 POP SWAP2 SWAP1 POP JUMP JUMPDEST PUSH1 0x0 PUSH8 0xFFFFFFFFFFFFFFFF DUP3 AND SWAP1 POP SWAP2 SWAP1 POP JUMP JUMPDEST PUSH1 0x0 PUSH2 0x1AD8 DUP3 PUSH2 0x1A5E JUMP JUMPDEST SWAP1 POP SWAP2 SWAP1 POP JUMP JUMPDEST DUP3 DUP2 DUP4 CALLDATACOPY PUSH1 0x0 DUP4 DUP4 ADD MSTORE POP POP POP JUMP JUMPDEST PUSH1 0x0 JUMPDEST DUP4 DUP2 LT ISZERO PUSH2 0x1B0C JUMPI DUP1 DUP3 ADD MLOAD DUP2 DUP5 ADD MSTORE PUSH1 0x20 DUP2 ADD SWAP1 POP PUSH2 0x1AF1 JUMP JUMPDEST DUP4 DUP2 GT ISZERO PUSH2 0x1B1B JUMPI PUSH1 0x0 DUP5 DUP5 ADD MSTORE JUMPDEST POP POP POP POP JUMP JUMPDEST PUSH2 0x1B2A DUP3 PUSH2 0x1CD5 JUMP JUMPDEST DUP2 ADD DUP2 DUP2 LT PUSH8 0xFFFFFFFFFFFFFFFF DUP3 GT OR ISZERO PUSH2 0x1B49 JUMPI PUSH2 0x1B48 PUSH2 0x1C88 JUMP JUMPDEST JUMPDEST DUP1 PUSH1 0x40 MSTORE POP POP POP JUMP JUMPDEST PUSH1 0x0 PUSH2 0x1B5D DUP3 PUSH2 0x1A9F JUMP JUMPDEST SWAP2 POP PUSH32 0xFFFFFFFFFFFFFFFFFFFFFFFFFFFFFFFFFFFFFFFFFFFFFFFFFFFFFFFFFFFFFFFF DUP3 EQ ISZERO PUSH2 0x1B90 JUMPI PUSH2 0x1B8F PUSH2 0x1BCC JUMP JUMPDEST JUMPDEST PUSH1 0x1 DUP3 ADD SWAP1 POP SWAP2 SWAP1 POP JUMP JUMPDEST PUSH1 0x0 PUSH2 0x1BA6 DUP3 PUSH2 0x1A9F JUMP JUMPDEST SWAP2 POP PUSH2 0x1BB1 DUP4 PUSH2 0x1A9F JUMP JUMPDEST SWAP3 POP DUP3 PUSH2 0x1BC1 JUMPI PUSH2 0x1BC0 PUSH2 0x1BFB JUMP JUMPDEST JUMPDEST DUP3 DUP3 MOD SWAP1 POP SWAP3 SWAP2 POP POP JUMP JUMPDEST PUSH32 0x4E487B7100000000000000000000000000000000000000000000000000000000 PUSH1 0x0 MSTORE PUSH1 0x11 PUSH1 0x4 MSTORE PUSH1 0x24 PUSH1 0x0 REVERT JUMPDEST PUSH32 0x4E487B7100000000000000000000000000000000000000000000000000000000 PUSH1 0x0 MSTORE PUSH1 0x12 PUSH1 0x4 MSTORE PUSH1 0x24 PUSH1 0x0 REVERT JUMPDEST PUSH32 0x4E487B7100000000000000000000000000000000000000000000000000000000 PUSH1 0x0 MSTORE PUSH1 0x21 PUSH1 0x4 MSTORE PUSH1 0x24 PUSH1 0x0 REVERT JUMPDEST PUSH32 0x4E487B7100000000000000000000000000000000000000000000000000000000 PUSH1 0x0 MSTORE PUSH1 0x32 PUSH1 0x4 MSTORE PUSH1 0x24 PUSH1 0x0 REVERT JUMPDEST PUSH32 0x4E487B7100000000000000000000000000000000000000000000000000000000 PUSH1 0x0 MSTORE PUSH1 0x41 PUSH1 0x4 MSTORE PUSH1 0x24 PUSH1 0x0 REVERT JUMPDEST PUSH1 0x0 DUP1 REVERT JUMPDEST PUSH1 0x0 DUP1 REVERT JUMPDEST PUSH1 0x0 DUP1 REVERT JUMPDEST PUSH1 0x0 DUP1 REVERT JUMPDEST PUSH1 0x0 DUP1 REVERT JUMPDEST PUSH1 0x0 DUP1 REVERT JUMPDEST PUSH1 0x0 PUSH1 0x1F NOT PUSH1 0x1F DUP4 ADD AND SWAP1 POP SWAP2 SWAP1 POP JUMP JUMPDEST PUSH1 0x2 DUP2 LT PUSH2 0x1CF7 JUMPI PUSH2 0x1CF6 PUSH2 0x1C2A JUMP JUMPDEST JUMPDEST POP JUMP JUMPDEST PUSH2 0x1D03 DUP2 PUSH2 0x1A36 JUMP JUMPDEST DUP2 EQ PUSH2 0x1D0E JUMPI PUSH1 0x0 DUP1 REVERT JUMPDEST POP JUMP JUMPDEST PUSH2 0x1D1A DUP2 PUSH2 0x1A9F JUMP JUMPDEST DUP2 EQ PUSH2 0x1D25 JUMPI PUSH1 0x0 DUP1 REVERT JUMPDEST POP JUMP INVALID LOG2 PUSH5 0x6970667358 0x22 SLT KECCAK256 0xC 0xE0 DUP11 SWAP13 DUP14 PUSH13 0x184AB31588824188B491E8F42 0xD6 0xCC MUL PUSH22 0x5CE6FA250C29533A6B64736F6C634300080700330000 "},"gasEstimates":{"creation":{"codeDepositCost":"1503600","executionCost":"infinite","totalCost":"infinite"},"external":{"addPoints(address,uint256)":"infinite","checkUpkeep(bytes)":"infinite","coinOfTheDay()":"2473","gameAcc()":"2577","gameBal()":"2496","getCryrdleState()":"2592","getHighScore()":"2505","getParticipants()":"infinite","getParticipationFee()":"infinite","getPlayerDayPointBalance(address)":"2951","getPlayerTotalPointBalance(address)":"2886","getRewardPerWinner()":"2548","getWinners()":"infinite","highscore()":"2496","joinCryrdle()":"infinite","payWinner()":"infinite","performUpkeep(bytes)":"infinite","rawFulfillRandomWords(uint256,uint256[])":"infinite","rewardPerWinner()":"2540"},"internal":{"fulfillRandomWords(uint256,uint256[] memory)":"infinite"}},"methodIdentifiers":{"addPoints(address,uint256)":"507cd30f","checkUpkeep(bytes)":"6e04ff0d","coinOfTheDay()":"c763424f","gameAcc()":"db705254","gameBal()":"5aa0f9eb","getCryrdleState()":"19682ae9","getHighScore()":"3824ea31","getParticipants()":"5aa68ac0","getParticipationFee()":"863fc11e","getPlayerDayPointBalance(address)":"e40e93d5","getPlayerTotalPointBalance(address)":"5142839f","getRewardPerWinner()":"64c8ec0c","getWinners()":"df15c37e","highscore()":"8d8981b4","joinCryrdle()":"959824d7","payWinner()":"be71248a","performUpkeep(bytes)":"4585e33b","rawFulfillRandomWords(uint256,uint256[])":"1fe543e3","rewardPerWinner()":"9abed90d"}},"storageLayout":{"storage":[{"astId":401,"contract":"contracts/Cryrdle.sol:Cryrdle","label":"gameAcc","offset":0,"slot":"0","type":"t_address"},{"astId":403,"contract":"contracts/Cryrdle.sol:Cryrdle","label":"gameBal","offset":0,"slot":"1","type":"t_uint256"},{"astId":406,"contract":"contracts/Cryrdle.sol:Cryrdle","label":"participants","offset":0,"slot":"2","type":"t_array(t_address)dyn_storage"},{"astId":410,"contract":"contracts/Cryrdle.sol:Cryrdle","label":"rewardPerWinner","offset":0,"slot":"3","type":"t_uint256"},{"astId":412,"contract":"contracts/Cryrdle.sol:Cryrdle","label":"highscore","offset":0,"slot":"4","type":"t_uint256"},{"astId":415,"contract":"contracts/Cryrdle.sol:Cryrdle","label":"winners","offset":0,"slot":"5","type":"t_array(t_address)dyn_storage"},{"astId":417,"contract":"contracts/Cryrdle.sol:Cryrdle","label":"coinOfTheDay","offset":0,"slot":"6","type":"t_uint256"},{"astId":420,"contract":"contracts/Cryrdle.sol:Cryrdle","label":"coinHistory","offset":0,"slot":"7","type":"t_array(t_uint256)dyn_storage"},{"astId":423,"contract":"contracts/Cryrdle.sol:Cryrdle","label":"s_cryrdleState","offset":0,"slot":"8","type":"t_enum(CryrdleState)399"},{"astId":425,"contract":"contracts/Cryrdle.sol:Cryrdle","label":"s_lastTimeStamp","offset":0,"slot":"9","type":"t_uint256"},{"astId":458,"contract":"contracts/Cryrdle.sol:Cryrdle","label":"totalPointBalances","offset":0,"slot":"10","type":"t_mapping(t_address,t_uint256)"},{"astId":462,"contract":"contracts/Cryrdle.sol:Cryrdle","label":"dayPointBalances","offset":0,"slot":"11","type":"t_mapping(t_address,t_uint256)"},{"astId":466,"contract":"contracts/Cryrdle.sol:Cryrdle","label":"paidParticipationFee","offset":0,"slot":"12","type":"t_mapping(t_address,t_bool)"}],"types":{"t_address":{"encoding":"inplace","label":"address","numberOfBytes":"20"},"t_array(t_address)dyn_storage":{"base":"t_address","encoding":"dynamic_array","label":"address[]","numberOfBytes":"32"},"t_array(t_uint256)dyn_storage":{"base":"t_uint256","encoding":"dynamic_array","label":"uint256[]","numberOfBytes":"32"},"t_bool":{"encoding":"inplace","label":"bool","numberOfBytes":"1"},"t_enum(CryrdleState)399":{"encoding":"inplace","label":"enum Cryrdle.CryrdleState","numberOfBytes":"1"},"t_mapping(t_address,t_bool)":{"encoding":"mapping","key":"t_address","label":"mapping(address => bool)","numberOfBytes":"32","value":"t_bool"},"t_mapping(t_address,t_uint256)":{"encoding":"mapping","key":"t_address","label":"mapping(address => uint256)","numberOfBytes":"32","value":"t_uint256"},"t_uint256":{"encoding":"inplace","label":"uint256","numberOfBytes":"32"}}},"userdoc":{"kind":"user","methods":{},"version":1}}}}