{
  "_format": "hh-sol-artifact-1",
  "contractName": "Cryrdle",
  "sourceName": "contracts/Cryrdle.sol",
  "abi": [
    {
      "inputs": [
        {
          "internalType": "uint256",
          "name": "participationFee",
          "type": "uint256"
        },
        {
          "internalType": "address",
          "name": "vrfCoordinatorV2",
          "type": "address"
        },
        {
          "internalType": "bytes32",
          "name": "gasLane",
          "type": "bytes32"
        },
        {
          "internalType": "uint64",
          "name": "subscriptionId",
          "type": "uint64"
        },
        {
          "internalType": "uint32",
          "name": "callbackGasLimit",
          "type": "uint32"
        },
        {
          "internalType": "uint256",
          "name": "interval",
          "type": "uint256"
        }
      ],
      "stateMutability": "nonpayable",
      "type": "constructor"
    },
    {
      "inputs": [
        {
          "internalType": "address",
          "name": "have",
          "type": "address"
        },
        {
          "internalType": "address",
          "name": "want",
          "type": "address"
        }
      ],
      "name": "OnlyCoordinatorCanFulfill",
      "type": "error"
    },
    {
      "inputs": [
        {
          "internalType": "uint256",
          "name": "cryrdleState",
          "type": "uint256"
        }
      ],
      "name": "UpkeepNotNeeded",
      "type": "error"
    },
    {
      "inputs": [],
      "name": "cryrdleNotOpen",
      "type": "error"
    },
    {
      "inputs": [],
      "name": "lowScore",
      "type": "error"
    },
    {
      "inputs": [],
      "name": "noPrizePool",
      "type": "error"
    },
    {
      "inputs": [],
      "name": "noScore",
      "type": "error"
    },
    {
      "inputs": [],
      "name": "notEqualFee",
      "type": "error"
    },
    {
      "inputs": [],
      "name": "notPaidFee",
      "type": "error"
    },
    {
      "anonymous": false,
      "inputs": [
        {
          "indexed": true,
          "internalType": "uint256",
          "name": "coinOfTheDay",
          "type": "uint256"
        }
      ],
      "name": "CoinOfTheDayUpdated",
      "type": "event"
    },
    {
      "anonymous": false,
      "inputs": [
        {
          "indexed": true,
          "internalType": "address",
          "name": "participant",
          "type": "address"
        }
      ],
      "name": "CryrdleJoined",
      "type": "event"
    },
    {
      "anonymous": false,
      "inputs": [],
      "name": "GameStateReinitiated",
      "type": "event"
    },
    {
      "anonymous": false,
      "inputs": [
        {
          "indexed": true,
          "internalType": "uint256",
          "name": "requestId",
          "type": "uint256"
        }
      ],
      "name": "NewCryrdleGameStarted",
      "type": "event"
    },
    {
      "anonymous": false,
      "inputs": [
        {
          "indexed": true,
          "internalType": "address[]",
          "name": "winners",
          "type": "address[]"
        }
      ],
      "name": "WinnersPayedOut",
      "type": "event"
    },
    {
      "inputs": [
        {
          "internalType": "address",
          "name": "_participant",
          "type": "address"
        },
        {
          "internalType": "uint256",
          "name": "points",
          "type": "uint256"
        }
      ],
      "name": "addPoints",
      "outputs": [],
      "stateMutability": "nonpayable",
      "type": "function"
    },
    {
      "inputs": [
        {
          "internalType": "bytes",
          "name": "",
          "type": "bytes"
        }
      ],
      "name": "checkUpkeep",
      "outputs": [
        {
          "internalType": "bool",
          "name": "upkeepNeeded",
          "type": "bool"
        },
        {
          "internalType": "bytes",
          "name": "",
          "type": "bytes"
        }
      ],
      "stateMutability": "view",
      "type": "function"
    },
    {
      "inputs": [],
      "name": "coinOfTheDay",
      "outputs": [
        {
          "internalType": "uint256",
          "name": "",
          "type": "uint256"
        }
      ],
      "stateMutability": "view",
      "type": "function"
    },
    {
      "inputs": [],
      "name": "gameAcc",
      "outputs": [
        {
          "internalType": "address",
          "name": "",
          "type": "address"
        }
      ],
      "stateMutability": "view",
      "type": "function"
    },
    {
      "inputs": [],
      "name": "gameBal",
      "outputs": [
        {
          "internalType": "uint256",
          "name": "",
          "type": "uint256"
        }
      ],
      "stateMutability": "view",
      "type": "function"
    },
    {
      "inputs": [],
      "name": "getCryrdleState",
      "outputs": [
        {
          "internalType": "enum Cryrdle.CryrdleState",
          "name": "",
          "type": "uint8"
        }
      ],
      "stateMutability": "view",
      "type": "function"
    },
    {
      "inputs": [],
      "name": "getHighScore",
      "outputs": [
        {
          "internalType": "uint256",
          "name": "",
          "type": "uint256"
        }
      ],
      "stateMutability": "view",
      "type": "function"
    },
    {
      "inputs": [],
      "name": "getInterval",
      "outputs": [
        {
          "internalType": "uint256",
          "name": "",
          "type": "uint256"
        }
      ],
      "stateMutability": "view",
      "type": "function"
    },
    {
      "inputs": [],
      "name": "getLastTimeStamp",
      "outputs": [
        {
          "internalType": "uint256",
          "name": "",
          "type": "uint256"
        }
      ],
      "stateMutability": "view",
      "type": "function"
    },
    {
      "inputs": [],
      "name": "getNumberOfParticipants",
      "outputs": [
        {
          "internalType": "uint256",
          "name": "",
          "type": "uint256"
        }
      ],
      "stateMutability": "view",
      "type": "function"
    },
    {
      "inputs": [],
      "name": "getNumberOfWinners",
      "outputs": [
        {
          "internalType": "uint256",
          "name": "",
          "type": "uint256"
        }
      ],
      "stateMutability": "view",
      "type": "function"
    },
    {
      "inputs": [],
      "name": "getParticipants",
      "outputs": [
        {
          "internalType": "address[]",
          "name": "",
          "type": "address[]"
        }
      ],
      "stateMutability": "view",
      "type": "function"
    },
    {
      "inputs": [],
      "name": "getParticipationFee",
      "outputs": [
        {
          "internalType": "uint256",
          "name": "",
          "type": "uint256"
        }
      ],
      "stateMutability": "view",
      "type": "function"
    },
    {
      "inputs": [
        {
          "internalType": "address",
          "name": "playerAddress",
          "type": "address"
        }
      ],
      "name": "getPlayerDayPointBalance",
      "outputs": [
        {
          "internalType": "uint256",
          "name": "",
          "type": "uint256"
        }
      ],
      "stateMutability": "view",
      "type": "function"
    },
    {
      "inputs": [
        {
          "internalType": "address",
          "name": "playerAddress",
          "type": "address"
        }
      ],
      "name": "getPlayerTotalPointBalance",
      "outputs": [
        {
          "internalType": "uint256",
          "name": "",
          "type": "uint256"
        }
      ],
      "stateMutability": "view",
      "type": "function"
    },
    {
      "inputs": [],
      "name": "getRequestConfirmations",
      "outputs": [
        {
          "internalType": "uint256",
          "name": "",
          "type": "uint256"
        }
      ],
      "stateMutability": "pure",
      "type": "function"
    },
    {
      "inputs": [],
      "name": "getRewardPerWinner",
      "outputs": [
        {
          "internalType": "uint256",
          "name": "",
          "type": "uint256"
        }
      ],
      "stateMutability": "view",
      "type": "function"
    },
    {
      "inputs": [],
      "name": "getWinners",
      "outputs": [
        {
          "internalType": "address[]",
          "name": "",
          "type": "address[]"
        }
      ],
      "stateMutability": "view",
      "type": "function"
    },
    {
      "inputs": [],
      "name": "highscore",
      "outputs": [
        {
          "internalType": "uint256",
          "name": "",
          "type": "uint256"
        }
      ],
      "stateMutability": "view",
      "type": "function"
    },
    {
      "inputs": [],
      "name": "joinCryrdle",
      "outputs": [],
      "stateMutability": "payable",
      "type": "function"
    },
    {
      "inputs": [
        {
          "internalType": "bytes",
          "name": "",
          "type": "bytes"
        }
      ],
      "name": "performUpkeep",
      "outputs": [],
      "stateMutability": "nonpayable",
      "type": "function"
    },
    {
      "inputs": [
        {
          "internalType": "uint256",
          "name": "requestId",
          "type": "uint256"
        },
        {
          "internalType": "uint256[]",
          "name": "randomWords",
          "type": "uint256[]"
        }
      ],
      "name": "rawFulfillRandomWords",
      "outputs": [],
      "stateMutability": "nonpayable",
      "type": "function"
    },
    {
      "inputs": [],
      "name": "rewardPerWinner",
      "outputs": [
        {
          "internalType": "uint256",
          "name": "",
          "type": "uint256"
        }
      ],
      "stateMutability": "view",
      "type": "function"
    }
  ],
  "bytecode": "0x6101606040523480156200001257600080fd5b50604051620023f1380380620023f18339818101604052810190620000389190620001f5565b848073ffffffffffffffffffffffffffffffffffffffff1660808173ffffffffffffffffffffffffffffffffffffffff1660601b81525050508473ffffffffffffffffffffffffffffffffffffffff1660e08173ffffffffffffffffffffffffffffffffffffffff1660601b815250508361010081815250508267ffffffffffffffff166101208167ffffffffffffffff1660c01b815250508163ffffffff166101408163ffffffff1660e01b81525050336000806101000a81548173ffffffffffffffffffffffffffffffffffffffff021916908373ffffffffffffffffffffffffffffffffffffffff16021790555060006001819055508560a081815250506000600860006101000a81548160ff02191690836001811115620001625762000161620002fd565b5b0217905550426009819055508060c08181525050505050505050620003b3565b600081519050620001938162000331565b92915050565b600081519050620001aa816200034b565b92915050565b600081519050620001c18162000365565b92915050565b600081519050620001d8816200037f565b92915050565b600081519050620001ef8162000399565b92915050565b60008060008060008060c087890312156200021557620002146200032c565b5b60006200022589828a01620001b0565b96505060206200023889828a0162000182565b95505060406200024b89828a0162000199565b94505060606200025e89828a01620001de565b93505060806200027189828a01620001c7565b92505060a06200028489828a01620001b0565b9150509295509295509295565b60006200029e82620002af565b9050919050565b6000819050919050565b600073ffffffffffffffffffffffffffffffffffffffff82169050919050565b6000819050919050565b600063ffffffff82169050919050565b600067ffffffffffffffff82169050919050565b7f4e487b7100000000000000000000000000000000000000000000000000000000600052602160045260246000fd5b600080fd5b6200033c8162000291565b81146200034857600080fd5b50565b6200035681620002a5565b81146200036257600080fd5b50565b6200037081620002cf565b81146200037c57600080fd5b50565b6200038a81620002d9565b81146200039657600080fd5b50565b620003a481620002e9565b8114620003b057600080fd5b50565b60805160601c60a05160c05160e05160601c610100516101205160c01c6101405160e01c611fc26200042f60003960006107420152600061071f015260006106fe015260006106c2015260008181610ca40152610d61015260008181610d260152610d8701526000818161054b015261059f0152611fc26000f3fe6080604052600436106101405760003560e01c8063863fc11e116100b6578063c1c244e81161006f578063c1c244e81461041e578063c763424f14610449578063c80c28a214610474578063db7052541461049f578063df15c37e146104ca578063e40e93d5146104f557610140565b8063863fc11e1461033d5780638d8981b4146103685780638e33cffc1461039357806391ad27b4146103be578063959824d7146103e95780639abed90d146103f357610140565b80635142839f116101085780635142839f146102165780635aa0f9eb146102535780635aa68ac01461027e5780635f1b0fd8146102a957806364c8ec0c146102d45780636e04ff0d146102ff57610140565b806319682ae9146101455780631fe543e3146101705780633824ea31146101995780634585e33b146101c4578063507cd30f146101ed575b600080fd5b34801561015157600080fd5b5061015a610532565b6040516101679190611a40565b60405180910390f35b34801561017c57600080fd5b5061019760048036038101906101929190611722565b610549565b005b3480156101a557600080fd5b506101ae610609565b6040516101bb9190611a5b565b60405180910390f35b3480156101d057600080fd5b506101eb60048036038101906101e6919061165f565b610613565b005b3480156101f957600080fd5b50610214600480360381019061020f919061161f565b61080a565b005b34801561022257600080fd5b5061023d600480360381019061023891906115f2565b610b6d565b60405161024a9190611a5b565b60405180910390f35b34801561025f57600080fd5b50610268610bb6565b6040516102759190611a5b565b60405180910390f35b34801561028a57600080fd5b50610293610bbc565b6040516102a0919061199b565b60405180910390f35b3480156102b557600080fd5b506102be610c4a565b6040516102cb9190611a5b565b60405180910390f35b3480156102e057600080fd5b506102e9610c57565b6040516102f69190611a5b565b60405180910390f35b34801561030b57600080fd5b50610326600480360381019061032191906116ac565b610c61565b6040516103349291906119bd565b60405180910390f35b34801561034957600080fd5b50610352610d22565b60405161035f9190611a5b565b60405180910390f35b34801561037457600080fd5b5061037d610d4a565b60405161038a9190611a5b565b60405180910390f35b34801561039f57600080fd5b506103a8610d50565b6040516103b59190611a5b565b60405180910390f35b3480156103ca57600080fd5b506103d3610d5d565b6040516103e09190611a5b565b60405180910390f35b6103f1610d85565b005b3480156103ff57600080fd5b50610408610f64565b6040516104159190611a5b565b60405180910390f35b34801561042a57600080fd5b50610433610f6a565b6040516104409190611a5b565b60405180910390f35b34801561045557600080fd5b5061045e610f74565b60405161046b9190611a5b565b60405180910390f35b34801561048057600080fd5b50610489610f7a565b6040516104969190611a5b565b60405180910390f35b3480156104ab57600080fd5b506104b4610f87565b6040516104c19190611957565b60405180910390f35b3480156104d657600080fd5b506104df610fab565b6040516104ec919061199b565b60405180910390f35b34801561050157600080fd5b5061051c600480360381019061051791906115f2565b611076565b6040516105299190611a5b565b60405180910390f35b6000600860009054906101000a900460ff16905090565b7f000000000000000000000000000000000000000000000000000000000000000073ffffffffffffffffffffffffffffffffffffffff163373ffffffffffffffffffffffffffffffffffffffff16146105fb57337f00000000000000000000000000000000000000000000000000000000000000006040517f1cf993f40000000000000000000000000000000000000000000000000000000081526004016105f2929190611972565b60405180910390fd5b61060582826110bf565b5050565b6000600454905090565b600061062d60405180602001604052806000815250610c61565b5090508061069357600860009054906101000a900460ff16600181111561065757610656611e6e565b5b6040517faa2a11b300000000000000000000000000000000000000000000000000000000815260040161068a9190611a5b565b60405180910390fd5b6001600860006101000a81548160ff021916908360018111156106b9576106b8611e6e565b5b021790555060007f000000000000000000000000000000000000000000000000000000000000000073ffffffffffffffffffffffffffffffffffffffff16635d3b1d307f00000000000000000000000000000000000000000000000000000000000000007f000000000000000000000000000000000000000000000000000000000000000060037f000000000000000000000000000000000000000000000000000000000000000060016040518663ffffffff1660e01b81526004016107839594939291906119ed565b602060405180830381600087803b15801561079d57600080fd5b505af11580156107b1573d6000803e3d6000fd5b505050506040513d601f19601f820116820180604052508101906107d591906116f5565b9050807f1bdeb90bbbf3df7a7a2a6b41c6dd703701bbec7136d50f019824be616ba3e4cc60405160405180910390a250505050565b60011515600c60008473ffffffffffffffffffffffffffffffffffffffff1673ffffffffffffffffffffffffffffffffffffffff16815260200190815260200160002060009054906101000a900460ff16151514610894576040517f9fa61b6b00000000000000000000000000000000000000000000000000000000815260040160405180910390fd5b80600b60008473ffffffffffffffffffffffffffffffffffffffff1673ffffffffffffffffffffffffffffffffffffffff16815260200190815260200160002060008282546108e39190611b85565b9250508190555080600a60008473ffffffffffffffffffffffffffffffffffffffff1673ffffffffffffffffffffffffffffffffffffffff16815260200190815260200160002060008282546109399190611b85565b92505081905550600454600b60008473ffffffffffffffffffffffffffffffffffffffff1673ffffffffffffffffffffffffffffffffffffffff1681526020019081526020016000205410156109bb576040517f36a5e99400000000000000000000000000000000000000000000000000000000815260040160405180910390fd5b600454600b60008473ffffffffffffffffffffffffffffffffffffffff1673ffffffffffffffffffffffffffffffffffffffff168152602001908152602001600020541415610a85576005829080600181540180825580915050600190039060005260206000200160009091909190916101000a81548173ffffffffffffffffffffffffffffffffffffffff021916908373ffffffffffffffffffffffffffffffffffffffff160217905550600580549050600154610a7a9190611bdb565b600381905550610b69565b80600481905550600067ffffffffffffffff811115610aa757610aa6611ecc565b5b604051908082528060200260200182016040528015610ad55781602001602082028036833780820191505090505b5060059080519060200190610aeb9291906113a8565b506005829080600181540180825580915050600190039060005260206000200160009091909190916101000a81548173ffffffffffffffffffffffffffffffffffffffff021916908373ffffffffffffffffffffffffffffffffffffffff160217905550600580549050600154610b629190611bdb565b6003819055505b5050565b6000600a60008373ffffffffffffffffffffffffffffffffffffffff1673ffffffffffffffffffffffffffffffffffffffff168152602001908152602001600020549050919050565b60015481565b60606002805480602002602001604051908101604052809291908181526020018280548015610c4057602002820191906000526020600020905b8160009054906101000a900473ffffffffffffffffffffffffffffffffffffffff1673ffffffffffffffffffffffffffffffffffffffff1681526020019060010190808311610bf6575b5050505050905090565b6000600361ffff16905090565b6000600354905090565b600060606000600860009054906101000a900460ff166001811115610c8957610c88611e6e565b5b60006001811115610c9d57610c9c611e6e565b5b14905060007f000000000000000000000000000000000000000000000000000000000000000060095442610cd19190611c0c565b119050808015610cde5750815b9350836040518060400160405280600381526020017f3078300000000000000000000000000000000000000000000000000000000000815250935093505050915091565b60007f0000000000000000000000000000000000000000000000000000000000000000905090565b60045481565b6000600580549050905090565b60007f0000000000000000000000000000000000000000000000000000000000000000905090565b7f00000000000000000000000000000000000000000000000000000000000000003414610dde576040517f9b0d899a00000000000000000000000000000000000000000000000000000000815260040160405180910390fd5b6002339080600181540180825580915050600190039060005260206000200160009091909190916101000a81548173ffffffffffffffffffffffffffffffffffffffff021916908373ffffffffffffffffffffffffffffffffffffffff1602179055503460016000828254610e539190611b85565b925050819055506001600c60003373ffffffffffffffffffffffffffffffffffffffff1673ffffffffffffffffffffffffffffffffffffffff16815260200190815260200160002060006101000a81548160ff0219169083151502179055503373ffffffffffffffffffffffffffffffffffffffff167f970f4396869f233c8ed5d8298cd4c285ad5bb9ee51f3143b146bccad8943903d60405160405180910390a260006001811115610f0957610f08611e6e565b5b600860009054906101000a900460ff166001811115610f2b57610f2a611e6e565b5b14610f62576040517feb4ed6a900000000000000000000000000000000000000000000000000000000815260040160405180910390fd5b565b60035481565b6000600954905090565b60065481565b6000600280549050905090565b60008054906101000a900473ffffffffffffffffffffffffffffffffffffffff1681565b606060006003541415610fea576040517f6d2c5a5400000000000000000000000000000000000000000000000000000000815260040160405180910390fd5b600580548060200260200160405190810160405280929190818152602001828054801561106c57602002820191906000526020600020905b8160009054906101000a900473ffffffffffffffffffffffffffffffffffffffff1673ffffffffffffffffffffffffffffffffffffffff1681526020019060010190808311611022575b5050505050905090565b6000600b60008373ffffffffffffffffffffffffffffffffffffffff1673ffffffffffffffffffffffffffffffffffffffff168152602001908152602001600020549050919050565b600060015411156110fc576040517f5b966e5d00000000000000000000000000000000000000000000000000000000815260040160405180910390fd5b60005b6005805490508110156111a657600581815481106111205761111f611e9d565b5b9060005260206000200160009054906101000a900473ffffffffffffffffffffffffffffffffffffffff1673ffffffffffffffffffffffffffffffffffffffff166108fc6003549081150290604051600060405180830381858888f19350505050158015611192573d6000803e3d6000fd5b50808061119e90611d96565b9150506110ff565b5060056040516111b69190611940565b60405180910390207f8d1771c4f4039d4e9b79206957dc144aad6066d3271a8841deeb99eac5e1e2fb60405160405180910390a2600160648260008151811061120257611201611e9d565b5b60200260200101516112149190611ddf565b61121e9190611b85565b600681905550600760065490806001815401808255809150506001900390600052602060002001600090919091909150556006547f75c61172a72ac1ebefdf79e15dcf7ff41e653b7f28cdb30b99527c8e2c80504560405160405180910390a26000600181905550600067ffffffffffffffff8111156112a1576112a0611ecc565b5b6040519080825280602002602001820160405280156112cf5781602001602082028036833780820191505090505b50600590805190602001906112e59291906113a8565b50600067ffffffffffffffff81111561130157611300611ecc565b5b60405190808252806020026020018201604052801561132f5781602001602082028036833780820191505090505b50600290805190602001906113459291906113a8565b50426009819055506000600860006101000a81548160ff0219169083600181111561137357611372611e6e565b5b02179055507ffb8ce6b633f70504351138c9f5b9e6b8a0f9d24df5c52e727edcdb76416916ba60405160405180910390a15050565b828054828255906000526020600020908101928215611421579160200282015b828111156114205782518260006101000a81548173ffffffffffffffffffffffffffffffffffffffff021916908373ffffffffffffffffffffffffffffffffffffffff160217905550916020019190600101906113c8565b5b50905061142e9190611432565b5090565b5b8082111561144b576000816000905550600101611433565b5090565b600061146261145d84611a9b565b611a76565b9050808382526020820190508285602086028201111561148557611484611f18565b5b60005b858110156114b5578161149b88826115c8565b845260208401935060208301925050600181019050611488565b5050509392505050565b60006114d26114cd84611ac7565b611a76565b9050828152602081018484840111156114ee576114ed611f1d565b5b6114f9848285611d09565b509392505050565b60008135905061151081611f5e565b92915050565b600082601f83011261152b5761152a611f13565b5b813561153b84826020860161144f565b91505092915050565b60008083601f84011261155a57611559611f13565b5b8235905067ffffffffffffffff81111561157757611576611f0e565b5b60208301915083600182028301111561159357611592611f18565b5b9250929050565b600082601f8301126115af576115ae611f13565b5b81356115bf8482602086016114bf565b91505092915050565b6000813590506115d781611f75565b92915050565b6000815190506115ec81611f75565b92915050565b60006020828403121561160857611607611f27565b5b600061161684828501611501565b91505092915050565b6000806040838503121561163657611635611f27565b5b600061164485828601611501565b9250506020611655858286016115c8565b9150509250929050565b6000806020838503121561167657611675611f27565b5b600083013567ffffffffffffffff81111561169457611693611f22565b5b6116a085828601611544565b92509250509250929050565b6000602082840312156116c2576116c1611f27565b5b600082013567ffffffffffffffff8111156116e0576116df611f22565b5b6116ec8482850161159a565b91505092915050565b60006020828403121561170b5761170a611f27565b5b6000611719848285016115dd565b91505092915050565b6000806040838503121561173957611738611f27565b5b6000611747858286016115c8565b925050602083013567ffffffffffffffff81111561176857611767611f22565b5b61177485828601611516565b9150509250929050565b600061178a83836117ae565b60208301905092915050565b60006117a283836117cc565b60208301905092915050565b6117b781611c60565b82525050565b6117c681611c60565b82525050565b6117d581611c60565b82525050565b60006117e682611b1d565b6117f08185611b58565b93506117fb83611af8565b8060005b8381101561182c578151611813888261177e565b975061181e83611b3e565b9250506001810190506117ff565b5085935050505092915050565b600061184482611b28565b61184e8185611b69565b935061185983611b08565b8060005b838110156118915761186e82611efb565b6118788882611796565b975061188383611b4b565b92505060018101905061185d565b5085935050505092915050565b6118a781611c72565b82525050565b6118b681611c7e565b82525050565b60006118c782611b33565b6118d18185611b74565b93506118e1818560208601611d18565b6118ea81611f2c565b840191505092915050565b6118fe81611cf7565b82525050565b61190d81611c9b565b82525050565b61191c81611cc9565b82525050565b61192b81611cd3565b82525050565b61193a81611ce3565b82525050565b600061194c8284611839565b915081905092915050565b600060208201905061196c60008301846117bd565b92915050565b600060408201905061198760008301856117bd565b61199460208301846117bd565b9392505050565b600060208201905081810360008301526119b581846117db565b905092915050565b60006040820190506119d2600083018561189e565b81810360208301526119e481846118bc565b90509392505050565b600060a082019050611a0260008301886118ad565b611a0f6020830187611931565b611a1c6040830186611904565b611a296060830185611922565b611a366080830184611922565b9695505050505050565b6000602082019050611a5560008301846118f5565b92915050565b6000602082019050611a706000830184611913565b92915050565b6000611a80611a91565b9050611a8c8282611d65565b919050565b6000604051905090565b600067ffffffffffffffff821115611ab657611ab5611ecc565b5b602082029050602081019050919050565b600067ffffffffffffffff821115611ae257611ae1611ecc565b5b611aeb82611f2c565b9050602081019050919050565b6000819050602082019050919050565b60008190508160005260206000209050919050565b600081519050919050565b600081549050919050565b600081519050919050565b6000602082019050919050565b6000600182019050919050565b600082825260208201905092915050565b600081905092915050565b600082825260208201905092915050565b6000611b9082611cc9565b9150611b9b83611cc9565b9250827fffffffffffffffffffffffffffffffffffffffffffffffffffffffffffffffff03821115611bd057611bcf611e10565b5b828201905092915050565b6000611be682611cc9565b9150611bf183611cc9565b925082611c0157611c00611e3f565b5b828204905092915050565b6000611c1782611cc9565b9150611c2283611cc9565b925082821015611c3557611c34611e10565b5b828203905092915050565b600073ffffffffffffffffffffffffffffffffffffffff82169050919050565b6000611c6b82611ca9565b9050919050565b60008115159050919050565b6000819050919050565b6000819050611c9682611f4a565b919050565b600061ffff82169050919050565b600073ffffffffffffffffffffffffffffffffffffffff82169050919050565b6000819050919050565b600063ffffffff82169050919050565b600067ffffffffffffffff82169050919050565b6000611d0282611c88565b9050919050565b82818337600083830152505050565b60005b83811015611d36578082015181840152602081019050611d1b565b83811115611d45576000848401525b50505050565b6000611d5e611d5983611f3d565b611c40565b9050919050565b611d6e82611f2c565b810181811067ffffffffffffffff82111715611d8d57611d8c611ecc565b5b80604052505050565b6000611da182611cc9565b91507fffffffffffffffffffffffffffffffffffffffffffffffffffffffffffffffff821415611dd457611dd3611e10565b5b600182019050919050565b6000611dea82611cc9565b9150611df583611cc9565b925082611e0557611e04611e3f565b5b828206905092915050565b7f4e487b7100000000000000000000000000000000000000000000000000000000600052601160045260246000fd5b7f4e487b7100000000000000000000000000000000000000000000000000000000600052601260045260246000fd5b7f4e487b7100000000000000000000000000000000000000000000000000000000600052602160045260246000fd5b7f4e487b7100000000000000000000000000000000000000000000000000000000600052603260045260246000fd5b7f4e487b7100000000000000000000000000000000000000000000000000000000600052604160045260246000fd5b6000611f078254611d4b565b9050919050565b600080fd5b600080fd5b600080fd5b600080fd5b600080fd5b600080fd5b6000601f19601f8301169050919050565b60008160001c9050919050565b60028110611f5b57611f5a611e6e565b5b50565b611f6781611c60565b8114611f7257600080fd5b50565b611f7e81611cc9565b8114611f8957600080fd5b5056fea264697066735822122006953b6a1c5b7f9ea68ffff15bd4696b8616845d2a6d092423a082f7ba9e742e64736f6c63430008070033",
  "linkReferences": {},
  "deployedLinkReferences": {}
}