{
  "_format": "hh-sol-artifact-1",
  "contractName": "Cryrdle",
  "sourceName": "contracts/Cryrdle.sol",
  "abi": [
    {
      "inputs": [],
      "stateMutability": "nonpayable",
      "type": "constructor"
    },
    {
      "inputs": [
        {
          "internalType": "address",
          "name": "_participant",
          "type": "address"
        },
        {
          "internalType": "uint256",
          "name": "points",
          "type": "uint256"
        }
      ],
      "name": "addPoints",
      "outputs": [],
      "stateMutability": "nonpayable",
      "type": "function"
    },
    {
      "inputs": [
        {
          "internalType": "address",
          "name": "_address",
          "type": "address"
        }
      ],
      "name": "checkParticipant",
      "outputs": [
        {
          "internalType": "bool",
          "name": "",
          "type": "bool"
        }
      ],
      "stateMutability": "view",
      "type": "function"
    },
    {
      "inputs": [
        {
          "internalType": "uint256",
          "name": "",
          "type": "uint256"
        }
      ],
      "name": "currentWinners",
      "outputs": [
        {
          "internalType": "uint256",
          "name": "currentHighscore",
          "type": "uint256"
        },
        {
          "internalType": "address",
          "name": "currentWinnerAddress",
          "type": "address"
        }
      ],
      "stateMutability": "view",
      "type": "function"
    },
    {
      "inputs": [],
      "name": "gameAcc",
      "outputs": [
        {
          "internalType": "address",
          "name": "",
          "type": "address"
        }
      ],
      "stateMutability": "view",
      "type": "function"
    },
    {
      "inputs": [],
      "name": "gameBal",
      "outputs": [
        {
          "internalType": "uint256",
          "name": "",
          "type": "uint256"
        }
      ],
      "stateMutability": "view",
      "type": "function"
    },
    {
      "inputs": [],
      "name": "getParticipants",
      "outputs": [
        {
          "internalType": "address[]",
          "name": "",
          "type": "address[]"
        }
      ],
      "stateMutability": "view",
      "type": "function"
    },
    {
      "inputs": [],
      "name": "getWinners",
      "outputs": [
        {
          "internalType": "address[]",
          "name": "",
          "type": "address[]"
        }
      ],
      "stateMutability": "view",
      "type": "function"
    },
    {
      "inputs": [],
      "name": "joinCryrdle",
      "outputs": [],
      "stateMutability": "payable",
      "type": "function"
    },
    {
      "inputs": [],
      "name": "participationFee",
      "outputs": [
        {
          "internalType": "uint256",
          "name": "",
          "type": "uint256"
        }
      ],
      "stateMutability": "view",
      "type": "function"
    },
    {
      "inputs": [
        {
          "internalType": "address[]",
          "name": "_winners",
          "type": "address[]"
        }
      ],
      "name": "payWinner",
      "outputs": [],
      "stateMutability": "payable",
      "type": "function"
    },
    {
      "inputs": [],
      "name": "totalGuesses",
      "outputs": [
        {
          "internalType": "uint256",
          "name": "",
          "type": "uint256"
        }
      ],
      "stateMutability": "view",
      "type": "function"
    }
  ],
  "bytecode": "0x608060405234801561001057600080fd5b50336000806101000a81548173ffffffffffffffffffffffffffffffffffffffff021916908373ffffffffffffffffffffffffffffffffffffffff16021790555060006001819055506000600281905550655af3107a4000600481905550610f938061007d6000396000f3fe60806040526004361061009c5760003560e01c80638ef28249116100645780638ef2824914610179578063959824d7146101a457806395b81876146101ae5780639bb5ce30146101ec578063db70525414610217578063df15c37e146102425761009c565b8063507cd30f146100a15780635aa0f9eb146100ca5780635aa68ac0146100f55780635b573186146101205780635f6ae12c1461015d575b600080fd5b3480156100ad57600080fd5b506100c860048036038101906100c3919061096b565b61026d565b005b3480156100d657600080fd5b506100df6104a6565b6040516100ec91906109ba565b60405180910390f35b34801561010157600080fd5b5061010a6104ac565b6040516101179190610a93565b60405180910390f35b34801561012c57600080fd5b5061014760048036038101906101429190610ab5565b61053a565b6040516101549190610afd565b60405180910390f35b61017760048036038101906101729190610c71565b6105e8565b005b34801561018557600080fd5b5061018e6106ef565b60405161019b91906109ba565b60405180910390f35b6101ac6106f5565b005b3480156101ba57600080fd5b506101d560048036038101906101d09190610cba565b6107b7565b6040516101e3929190610cf6565b60405180910390f35b3480156101f857600080fd5b5061020161080b565b60405161020e91906109ba565b60405180910390f35b34801561022357600080fd5b5061022c610811565b6040516102399190610d1f565b60405180910390f35b34801561024e57600080fd5b50610257610835565b6040516102649190610a93565b60405180910390f35b6102768261053a565b6102b5576040517f08c379a00000000000000000000000000000000000000000000000000000000081526004016102ac90610d97565b60405180910390fd5b80600660008473ffffffffffffffffffffffffffffffffffffffff1673ffffffffffffffffffffffffffffffffffffffff16815260200190815260200160002060008282546103049190610de6565b9250508190555080600560008473ffffffffffffffffffffffffffffffffffffffff1673ffffffffffffffffffffffffffffffffffffffff168152602001908152602001600020600082825461035a9190610de6565b9250508190555060005b6008805490508110156104a157816008828154811061038657610385610e1a565b5b906000526020600020906002020160000154106104a15781600882815481106103b2576103b1610e1a565b5b90600052602060002090600202016000018190555082600882815481106103dc576103db610e1a565b5b906000526020600020906002020160010160006101000a81548173ffffffffffffffffffffffffffffffffffffffff021916908373ffffffffffffffffffffffffffffffffffffffff1602179055506007839080600181540180825580915050600190039060005260206000200160009091909190916101000a81548173ffffffffffffffffffffffffffffffffffffffff021916908373ffffffffffffffffffffffffffffffffffffffff160217905550808061049990610e49565b915050610364565b505050565b60015481565b6060600380548060200260200160405190810160405280929190818152602001828054801561053057602002820191906000526020600020905b8160009054906101000a900473ffffffffffffffffffffffffffffffffffffffff1673ffffffffffffffffffffffffffffffffffffffff16815260200190600101908083116104e6575b5050505050905090565b600080600090505b6003805490508110156105dd578273ffffffffffffffffffffffffffffffffffffffff166003828154811061057a57610579610e1a565b5b9060005260206000200160009054906101000a900473ffffffffffffffffffffffffffffffffffffffff1673ffffffffffffffffffffffffffffffffffffffff16036105ca5760019150506105e3565b80806105d590610e49565b915050610542565b50600090505b919050565b6000341161062b576040517f08c379a000000000000000000000000000000000000000000000000000000000815260040161062290610edd565b60405180910390fd5b6000815160015461063c9190610f2c565b905060005b82518110156106e2576007818154811061065e5761065d610e1a565b5b9060005260206000200160009054906101000a900473ffffffffffffffffffffffffffffffffffffffff1673ffffffffffffffffffffffffffffffffffffffff166108fc839081150290604051600060405180830381858888f193505050501580156106ce573d6000803e3d6000fd5b5080806106da90610e49565b915050610641565b5060006001819055505050565b60025481565b6004543414610739576040517f08c379a000000000000000000000000000000000000000000000000000000000815260040161073090610d97565b60405180910390fd5b6003339080600181540180825580915050600190039060005260206000200160009091909190916101000a81548173ffffffffffffffffffffffffffffffffffffffff021916908373ffffffffffffffffffffffffffffffffffffffff16021790555034600160008282546107ae9190610de6565b92505081905550565b600881815481106107c757600080fd5b90600052602060002090600202016000915090508060000154908060010160009054906101000a900473ffffffffffffffffffffffffffffffffffffffff16905082565b60045481565b60008054906101000a900473ffffffffffffffffffffffffffffffffffffffff1681565b606060078054806020026020016040519081016040528092919081815260200182805480156108b957602002820191906000526020600020905b8160009054906101000a900473ffffffffffffffffffffffffffffffffffffffff1673ffffffffffffffffffffffffffffffffffffffff168152602001906001019080831161086f575b5050505050905090565b6000604051905090565b600080fd5b600080fd5b600073ffffffffffffffffffffffffffffffffffffffff82169050919050565b6000610902826108d7565b9050919050565b610912816108f7565b811461091d57600080fd5b50565b60008135905061092f81610909565b92915050565b6000819050919050565b61094881610935565b811461095357600080fd5b50565b6000813590506109658161093f565b92915050565b60008060408385031215610982576109816108cd565b5b600061099085828601610920565b92505060206109a185828601610956565b9150509250929050565b6109b481610935565b82525050565b60006020820190506109cf60008301846109ab565b92915050565b600081519050919050565b600082825260208201905092915050565b6000819050602082019050919050565b610a0a816108f7565b82525050565b6000610a1c8383610a01565b60208301905092915050565b6000602082019050919050565b6000610a40826109d5565b610a4a81856109e0565b9350610a55836109f1565b8060005b83811015610a86578151610a6d8882610a10565b9750610a7883610a28565b925050600181019050610a59565b5085935050505092915050565b60006020820190508181036000830152610aad8184610a35565b905092915050565b600060208284031215610acb57610aca6108cd565b5b6000610ad984828501610920565b91505092915050565b60008115159050919050565b610af781610ae2565b82525050565b6000602082019050610b126000830184610aee565b92915050565b600080fd5b6000601f19601f8301169050919050565b7f4e487b7100000000000000000000000000000000000000000000000000000000600052604160045260246000fd5b610b6682610b1d565b810181811067ffffffffffffffff82111715610b8557610b84610b2e565b5b80604052505050565b6000610b986108c3565b9050610ba48282610b5d565b919050565b600067ffffffffffffffff821115610bc457610bc3610b2e565b5b602082029050602081019050919050565b600080fd5b6000610bed610be884610ba9565b610b8e565b90508083825260208201905060208402830185811115610c1057610c0f610bd5565b5b835b81811015610c395780610c258882610920565b845260208401935050602081019050610c12565b5050509392505050565b600082601f830112610c5857610c57610b18565b5b8135610c68848260208601610bda565b91505092915050565b600060208284031215610c8757610c866108cd565b5b600082013567ffffffffffffffff811115610ca557610ca46108d2565b5b610cb184828501610c43565b91505092915050565b600060208284031215610cd057610ccf6108cd565b5b6000610cde84828501610956565b91505092915050565b610cf0816108f7565b82525050565b6000604082019050610d0b60008301856109ab565b610d186020830184610ce7565b9392505050565b6000602082019050610d346000830184610ce7565b92915050565b600082825260208201905092915050565b7f5468652070617274696369706174696f6e206665652069732066697865640000600082015250565b6000610d81601e83610d3a565b9150610d8c82610d4b565b602082019050919050565b60006020820190508181036000830152610db081610d74565b9050919050565b7f4e487b7100000000000000000000000000000000000000000000000000000000600052601160045260246000fd5b6000610df182610935565b9150610dfc83610935565b9250828201905080821115610e1457610e13610db7565b5b92915050565b7f4e487b7100000000000000000000000000000000000000000000000000000000600052603260045260246000fd5b6000610e5482610935565b91507fffffffffffffffffffffffffffffffffffffffffffffffffffffffffffffffff8203610e8657610e85610db7565b5b600182019050919050565b7f5468657265206973206e6f20707269636520706f6f6c00000000000000000000600082015250565b6000610ec7601683610d3a565b9150610ed282610e91565b602082019050919050565b60006020820190508181036000830152610ef681610eba565b9050919050565b7f4e487b7100000000000000000000000000000000000000000000000000000000600052601260045260246000fd5b6000610f3782610935565b9150610f4283610935565b925082610f5257610f51610efd565b5b82820490509291505056fea2646970667358221220da7d00e0e7fc27248756c556a4e37beed1cd6ba5806e6c4795d59bcb9186a2fb64736f6c63430008110033",
  "linkReferences": {},
  "deployedLinkReferences": {}
}