{
  "_format": "hh-sol-artifact-1",
  "contractName": "Cryrdle",
  "sourceName": "contracts/Cryrdle.sol",
  "abi": [
    {
      "inputs": [
        {
          "internalType": "uint256",
          "name": "participationFee",
          "type": "uint256"
        },
        {
          "internalType": "address",
          "name": "vrfCoordinatorV2",
          "type": "address"
        },
        {
          "internalType": "bytes32",
          "name": "gasLane",
          "type": "bytes32"
        },
        {
          "internalType": "uint64",
          "name": "subscriptionId",
          "type": "uint64"
        },
        {
          "internalType": "uint32",
          "name": "callbackGasLimit",
          "type": "uint32"
        },
        {
          "internalType": "uint256",
          "name": "interval",
          "type": "uint256"
        }
      ],
      "stateMutability": "nonpayable",
      "type": "constructor"
    },
    {
      "inputs": [
        {
          "internalType": "address",
          "name": "have",
          "type": "address"
        },
        {
          "internalType": "address",
          "name": "want",
          "type": "address"
        }
      ],
      "name": "OnlyCoordinatorCanFulfill",
      "type": "error"
    },
    {
      "inputs": [
        {
          "internalType": "uint256",
          "name": "cryrdleState",
          "type": "uint256"
        }
      ],
      "name": "UpkeepNotNeeded",
      "type": "error"
    },
    {
      "inputs": [],
      "name": "cryrdleNotOpen",
      "type": "error"
    },
    {
      "inputs": [],
      "name": "lowScore",
      "type": "error"
    },
    {
      "inputs": [],
      "name": "noPrizePool",
      "type": "error"
    },
    {
      "inputs": [],
      "name": "noScore",
      "type": "error"
    },
    {
      "inputs": [],
      "name": "notEqualFee",
      "type": "error"
    },
    {
      "inputs": [],
      "name": "notPaidFee",
      "type": "error"
    },
    {
      "anonymous": false,
      "inputs": [
        {
          "indexed": true,
          "internalType": "uint256",
          "name": "coinOfTheDay",
          "type": "uint256"
        }
      ],
      "name": "CoinOfTheDayUpdated",
      "type": "event"
    },
    {
      "anonymous": false,
      "inputs": [
        {
          "indexed": true,
          "internalType": "address",
          "name": "participant",
          "type": "address"
        }
      ],
      "name": "CryrdleJoined",
      "type": "event"
    },
    {
      "anonymous": false,
      "inputs": [
        {
          "indexed": true,
          "internalType": "uint256",
          "name": "requestId",
          "type": "uint256"
        }
      ],
      "name": "RequestedCryrdleWinner",
      "type": "event"
    },
    {
      "inputs": [
        {
          "internalType": "address",
          "name": "_participant",
          "type": "address"
        },
        {
          "internalType": "uint256",
          "name": "points",
          "type": "uint256"
        }
      ],
      "name": "addPoints",
      "outputs": [],
      "stateMutability": "nonpayable",
      "type": "function"
    },
    {
      "inputs": [
        {
          "internalType": "bytes",
          "name": "",
          "type": "bytes"
        }
      ],
      "name": "checkUpkeep",
      "outputs": [
        {
          "internalType": "bool",
          "name": "upkeepNeeded",
          "type": "bool"
        },
        {
          "internalType": "bytes",
          "name": "",
          "type": "bytes"
        }
      ],
      "stateMutability": "view",
      "type": "function"
    },
    {
      "inputs": [],
      "name": "coinOfTheDay",
      "outputs": [
        {
          "internalType": "uint256",
          "name": "",
          "type": "uint256"
        }
      ],
      "stateMutability": "view",
      "type": "function"
    },
    {
      "inputs": [],
      "name": "gameAcc",
      "outputs": [
        {
          "internalType": "address",
          "name": "",
          "type": "address"
        }
      ],
      "stateMutability": "view",
      "type": "function"
    },
    {
      "inputs": [],
      "name": "gameBal",
      "outputs": [
        {
          "internalType": "uint256",
          "name": "",
          "type": "uint256"
        }
      ],
      "stateMutability": "view",
      "type": "function"
    },
    {
      "inputs": [],
      "name": "getCryrdleState",
      "outputs": [
        {
          "internalType": "enum Cryrdle.CryrdleState",
          "name": "",
          "type": "uint8"
        }
      ],
      "stateMutability": "view",
      "type": "function"
    },
    {
      "inputs": [],
      "name": "getHighScore",
      "outputs": [
        {
          "internalType": "uint256",
          "name": "",
          "type": "uint256"
        }
      ],
      "stateMutability": "view",
      "type": "function"
    },
    {
      "inputs": [],
      "name": "getParticipants",
      "outputs": [
        {
          "internalType": "address[]",
          "name": "",
          "type": "address[]"
        }
      ],
      "stateMutability": "view",
      "type": "function"
    },
    {
      "inputs": [],
      "name": "getParticipationFee",
      "outputs": [
        {
          "internalType": "uint256",
          "name": "",
          "type": "uint256"
        }
      ],
      "stateMutability": "view",
      "type": "function"
    },
    {
      "inputs": [
        {
          "internalType": "address",
          "name": "playerAddress",
          "type": "address"
        }
      ],
      "name": "getPlayerDayPointBalance",
      "outputs": [
        {
          "internalType": "uint256",
          "name": "",
          "type": "uint256"
        }
      ],
      "stateMutability": "view",
      "type": "function"
    },
    {
      "inputs": [
        {
          "internalType": "address",
          "name": "playerAddress",
          "type": "address"
        }
      ],
      "name": "getPlayerTotalPointBalance",
      "outputs": [
        {
          "internalType": "uint256",
          "name": "",
          "type": "uint256"
        }
      ],
      "stateMutability": "view",
      "type": "function"
    },
    {
      "inputs": [],
      "name": "getRewardPerWinner",
      "outputs": [
        {
          "internalType": "uint256",
          "name": "",
          "type": "uint256"
        }
      ],
      "stateMutability": "view",
      "type": "function"
    },
    {
      "inputs": [],
      "name": "getWinners",
      "outputs": [
        {
          "internalType": "address[]",
          "name": "",
          "type": "address[]"
        }
      ],
      "stateMutability": "view",
      "type": "function"
    },
    {
      "inputs": [],
      "name": "highscore",
      "outputs": [
        {
          "internalType": "uint256",
          "name": "",
          "type": "uint256"
        }
      ],
      "stateMutability": "view",
      "type": "function"
    },
    {
      "inputs": [],
      "name": "joinCryrdle",
      "outputs": [],
      "stateMutability": "payable",
      "type": "function"
    },
    {
      "inputs": [],
      "name": "payWinner",
      "outputs": [],
      "stateMutability": "payable",
      "type": "function"
    },
    {
      "inputs": [
        {
          "internalType": "bytes",
          "name": "",
          "type": "bytes"
        }
      ],
      "name": "performUpkeep",
      "outputs": [],
      "stateMutability": "nonpayable",
      "type": "function"
    },
    {
      "inputs": [
        {
          "internalType": "uint256",
          "name": "requestId",
          "type": "uint256"
        },
        {
          "internalType": "uint256[]",
          "name": "randomWords",
          "type": "uint256[]"
        }
      ],
      "name": "rawFulfillRandomWords",
      "outputs": [],
      "stateMutability": "nonpayable",
      "type": "function"
    },
    {
      "inputs": [],
      "name": "rewardPerWinner",
      "outputs": [
        {
          "internalType": "uint256",
          "name": "",
          "type": "uint256"
        }
      ],
      "stateMutability": "view",
      "type": "function"
    }
  ],
  "bytecode": "0x6101606040523480156200001257600080fd5b5060405162002186380380620021868339818101604052810190620000389190620001f5565b848073ffffffffffffffffffffffffffffffffffffffff1660808173ffffffffffffffffffffffffffffffffffffffff1660601b81525050508473ffffffffffffffffffffffffffffffffffffffff1660e08173ffffffffffffffffffffffffffffffffffffffff1660601b815250508361010081815250508267ffffffffffffffff166101208167ffffffffffffffff1660c01b815250508163ffffffff166101408163ffffffff1660e01b81525050336000806101000a81548173ffffffffffffffffffffffffffffffffffffffff021916908373ffffffffffffffffffffffffffffffffffffffff16021790555060006001819055508560a081815250506000600860006101000a81548160ff02191690836001811115620001625762000161620002fd565b5b0217905550426009819055508060c08181525050505050505050620003b3565b600081519050620001938162000331565b92915050565b600081519050620001aa816200034b565b92915050565b600081519050620001c18162000365565b92915050565b600081519050620001d8816200037f565b92915050565b600081519050620001ef8162000399565b92915050565b60008060008060008060c087890312156200021557620002146200032c565b5b60006200022589828a01620001b0565b96505060206200023889828a0162000182565b95505060406200024b89828a0162000199565b94505060606200025e89828a01620001de565b93505060806200027189828a01620001c7565b92505060a06200028489828a01620001b0565b9150509295509295509295565b60006200029e82620002af565b9050919050565b6000819050919050565b600073ffffffffffffffffffffffffffffffffffffffff82169050919050565b6000819050919050565b600063ffffffff82169050919050565b600067ffffffffffffffff82169050919050565b7f4e487b7100000000000000000000000000000000000000000000000000000000600052602160045260246000fd5b600080fd5b6200033c8162000291565b81146200034857600080fd5b50565b6200035681620002a5565b81146200036257600080fd5b50565b6200037081620002cf565b81146200037c57600080fd5b50565b6200038a81620002d9565b81146200039657600080fd5b50565b620003a481620002e9565b8114620003b057600080fd5b50565b60805160601c60a05160c05160e05160601c610100516101205160c01c6101405160e01c611d5e6200042860003960006106490152600061062601526000610605015260006105c901526000610b9e015260008181610c200152610c4c01526000818161045201526104a60152611d5e6000f3fe6080604052600436106101145760003560e01c80636e04ff0d116100a0578063be71248a11610064578063be71248a14610371578063c763424f1461037b578063db705254146103a6578063df15c37e146103d1578063e40e93d5146103fc57610114565b80636e04ff0d146102a8578063863fc11e146102e65780638d8981b414610311578063959824d71461033c5780639abed90d1461034657610114565b8063507cd30f116100e7578063507cd30f146101c15780635142839f146101ea5780635aa0f9eb146102275780635aa68ac01461025257806364c8ec0c1461027d57610114565b806319682ae9146101195780631fe543e3146101445780633824ea311461016d5780634585e33b14610198575b600080fd5b34801561012557600080fd5b5061012e610439565b60405161013b919061186e565b60405180910390f35b34801561015057600080fd5b5061016b600480360381019061016691906115f3565b610450565b005b34801561017957600080fd5b50610182610510565b60405161018f9190611889565b60405180910390f35b3480156101a457600080fd5b506101bf60048036038101906101ba9190611530565b61051a565b005b3480156101cd57600080fd5b506101e860048036038101906101e391906114f0565b610711565b005b3480156101f657600080fd5b50610211600480360381019061020c91906114c3565b610a74565b60405161021e9190611889565b60405180910390f35b34801561023357600080fd5b5061023c610abd565b6040516102499190611889565b60405180910390f35b34801561025e57600080fd5b50610267610ac3565b60405161027491906117c9565b60405180910390f35b34801561028957600080fd5b50610292610b51565b60405161029f9190611889565b60405180910390f35b3480156102b457600080fd5b506102cf60048036038101906102ca919061157d565b610b5b565b6040516102dd9291906117eb565b60405180910390f35b3480156102f257600080fd5b506102fb610c1c565b6040516103089190611889565b60405180910390f35b34801561031d57600080fd5b50610326610c44565b6040516103339190611889565b60405180910390f35b610344610c4a565b005b34801561035257600080fd5b5061035b610e29565b6040516103689190611889565b60405180910390f35b610379610e2f565b005b34801561038757600080fd5b50610390610fee565b60405161039d9190611889565b60405180910390f35b3480156103b257600080fd5b506103bb610ff4565b6040516103c89190611785565b60405180910390f35b3480156103dd57600080fd5b506103e6611018565b6040516103f391906117c9565b60405180910390f35b34801561040857600080fd5b50610423600480360381019061041e91906114c3565b6110e3565b6040516104309190611889565b60405180910390f35b6000600860009054906101000a900460ff16905090565b7f000000000000000000000000000000000000000000000000000000000000000073ffffffffffffffffffffffffffffffffffffffff163373ffffffffffffffffffffffffffffffffffffffff161461050257337f00000000000000000000000000000000000000000000000000000000000000006040517f1cf993f40000000000000000000000000000000000000000000000000000000081526004016104f99291906117a0565b60405180910390fd5b61050c828261112c565b5050565b6000600454905090565b600061053460405180602001604052806000815250610b5b565b5090508061059a57600860009054906101000a900460ff16600181111561055e5761055d611c2a565b5b6040517faa2a11b30000000000000000000000000000000000000000000000000000000081526004016105919190611889565b60405180910390fd5b6001600860006101000a81548160ff021916908360018111156105c0576105bf611c2a565b5b021790555060007f000000000000000000000000000000000000000000000000000000000000000073ffffffffffffffffffffffffffffffffffffffff16635d3b1d307f00000000000000000000000000000000000000000000000000000000000000007f000000000000000000000000000000000000000000000000000000000000000060037f000000000000000000000000000000000000000000000000000000000000000060016040518663ffffffff1660e01b815260040161068a95949392919061181b565b602060405180830381600087803b1580156106a457600080fd5b505af11580156106b8573d6000803e3d6000fd5b505050506040513d601f19601f820116820180604052508101906106dc91906115c6565b9050807f12e40cbd2e337e0d967f593c64f1cf095ff3df3168620b5330ba5c5514d57d8560405160405180910390a250505050565b60011515600c60008473ffffffffffffffffffffffffffffffffffffffff1673ffffffffffffffffffffffffffffffffffffffff16815260200190815260200160002060009054906101000a900460ff1615151461079b576040517f9fa61b6b00000000000000000000000000000000000000000000000000000000815260040160405180910390fd5b80600b60008473ffffffffffffffffffffffffffffffffffffffff1673ffffffffffffffffffffffffffffffffffffffff16815260200190815260200160002060008282546107ea919061197b565b9250508190555080600a60008473ffffffffffffffffffffffffffffffffffffffff1673ffffffffffffffffffffffffffffffffffffffff1681526020019081526020016000206000828254610840919061197b565b92505081905550600454600b60008473ffffffffffffffffffffffffffffffffffffffff1673ffffffffffffffffffffffffffffffffffffffff1681526020019081526020016000205410156108c2576040517f36a5e99400000000000000000000000000000000000000000000000000000000815260040160405180910390fd5b600454600b60008473ffffffffffffffffffffffffffffffffffffffff1673ffffffffffffffffffffffffffffffffffffffff16815260200190815260200160002054141561098c576005829080600181540180825580915050600190039060005260206000200160009091909190916101000a81548173ffffffffffffffffffffffffffffffffffffffff021916908373ffffffffffffffffffffffffffffffffffffffff16021790555060058054905060015461098191906119d1565b600381905550610a70565b80600481905550600067ffffffffffffffff8111156109ae576109ad611c88565b5b6040519080825280602002602001820160405280156109dc5781602001602082028036833780820191505090505b50600590805190602001906109f29291906111ef565b506005829080600181540180825580915050600190039060005260206000200160009091909190916101000a81548173ffffffffffffffffffffffffffffffffffffffff021916908373ffffffffffffffffffffffffffffffffffffffff160217905550600580549050600154610a6991906119d1565b6003819055505b5050565b6000600a60008373ffffffffffffffffffffffffffffffffffffffff1673ffffffffffffffffffffffffffffffffffffffff168152602001908152602001600020549050919050565b60015481565b60606002805480602002602001604051908101604052809291908181526020018280548015610b4757602002820191906000526020600020905b8160009054906101000a900473ffffffffffffffffffffffffffffffffffffffff1673ffffffffffffffffffffffffffffffffffffffff1681526020019060010190808311610afd575b5050505050905090565b6000600354905090565b600060606000600860009054906101000a900460ff166001811115610b8357610b82611c2a565b5b60006001811115610b9757610b96611c2a565b5b14905060007f000000000000000000000000000000000000000000000000000000000000000060095442610bcb9190611a02565b119050808015610bd85750815b9350836040518060400160405280600381526020017f3078300000000000000000000000000000000000000000000000000000000000815250935093505050915091565b60007f0000000000000000000000000000000000000000000000000000000000000000905090565b60045481565b7f00000000000000000000000000000000000000000000000000000000000000003414610ca3576040517f9b0d899a00000000000000000000000000000000000000000000000000000000815260040160405180910390fd5b6002339080600181540180825580915050600190039060005260206000200160009091909190916101000a81548173ffffffffffffffffffffffffffffffffffffffff021916908373ffffffffffffffffffffffffffffffffffffffff1602179055503460016000828254610d18919061197b565b925050819055506001600c60003373ffffffffffffffffffffffffffffffffffffffff1673ffffffffffffffffffffffffffffffffffffffff16815260200190815260200160002060006101000a81548160ff0219169083151502179055503373ffffffffffffffffffffffffffffffffffffffff167f970f4396869f233c8ed5d8298cd4c285ad5bb9ee51f3143b146bccad8943903d60405160405180910390a260006001811115610dce57610dcd611c2a565b5b600860009054906101000a900460ff166001811115610df057610def611c2a565b5b14610e27576040517feb4ed6a900000000000000000000000000000000000000000000000000000000815260040160405180910390fd5b565b60035481565b6000341115610e6a576040517f5b966e5d00000000000000000000000000000000000000000000000000000000815260040160405180910390fd5b60005b600580549050811015610f145760058181548110610e8e57610e8d611c59565b5b9060005260206000200160009054906101000a900473ffffffffffffffffffffffffffffffffffffffff1673ffffffffffffffffffffffffffffffffffffffff166108fc6003549081150290604051600060405180830381858888f19350505050158015610f00573d6000803e3d6000fd5b508080610f0c90611b52565b915050610e6d565b506000600181905550600067ffffffffffffffff811115610f3857610f37611c88565b5b604051908082528060200260200182016040528015610f665781602001602082028036833780820191505090505b5060059080519060200190610f7c9291906111ef565b50600067ffffffffffffffff811115610f9857610f97611c88565b5b604051908082528060200260200182016040528015610fc65781602001602082028036833780820191505090505b5060029080519060200190610fdc929190611279565b50600060068190555042600981905550565b60065481565b60008054906101000a900473ffffffffffffffffffffffffffffffffffffffff1681565b606060006003541415611057576040517f6d2c5a5400000000000000000000000000000000000000000000000000000000815260040160405180910390fd5b60058054806020026020016040519081016040528092919081815260200182805480156110d957602002820191906000526020600020905b8160009054906101000a900473ffffffffffffffffffffffffffffffffffffffff1673ffffffffffffffffffffffffffffffffffffffff168152602001906001019080831161108f575b5050505050905090565b6000600b60008373ffffffffffffffffffffffffffffffffffffffff1673ffffffffffffffffffffffffffffffffffffffff168152602001908152602001600020549050919050565b600160648260008151811061114457611143611c59565b5b60200260200101516111569190611b9b565b611160919061197b565b600681905550600760065490806001815401808255809150506001900390600052602060002001600090919091909150556006547f75c61172a72ac1ebefdf79e15dcf7ff41e653b7f28cdb30b99527c8e2c80504560405160405180910390a26000600860006101000a81548160ff021916908360018111156111e6576111e5611c2a565b5b02179055505050565b828054828255906000526020600020908101928215611268579160200282015b828111156112675782518260006101000a81548173ffffffffffffffffffffffffffffffffffffffff021916908373ffffffffffffffffffffffffffffffffffffffff1602179055509160200191906001019061120f565b5b5090506112759190611303565b5090565b8280548282559060005260206000209081019282156112f2579160200282015b828111156112f15782518260006101000a81548173ffffffffffffffffffffffffffffffffffffffff021916908373ffffffffffffffffffffffffffffffffffffffff16021790555091602001919060010190611299565b5b5090506112ff9190611303565b5090565b5b8082111561131c576000816000905550600101611304565b5090565b600061133361132e846118c9565b6118a4565b9050808382526020820190508285602086028201111561135657611355611cc1565b5b60005b85811015611386578161136c8882611499565b845260208401935060208301925050600181019050611359565b5050509392505050565b60006113a361139e846118f5565b6118a4565b9050828152602081018484840111156113bf576113be611cc6565b5b6113ca848285611adf565b509392505050565b6000813590506113e181611cfa565b92915050565b600082601f8301126113fc576113fb611cbc565b5b813561140c848260208601611320565b91505092915050565b60008083601f84011261142b5761142a611cbc565b5b8235905067ffffffffffffffff81111561144857611447611cb7565b5b60208301915083600182028301111561146457611463611cc1565b5b9250929050565b600082601f8301126114805761147f611cbc565b5b8135611490848260208601611390565b91505092915050565b6000813590506114a881611d11565b92915050565b6000815190506114bd81611d11565b92915050565b6000602082840312156114d9576114d8611cd0565b5b60006114e7848285016113d2565b91505092915050565b6000806040838503121561150757611506611cd0565b5b6000611515858286016113d2565b925050602061152685828601611499565b9150509250929050565b6000806020838503121561154757611546611cd0565b5b600083013567ffffffffffffffff81111561156557611564611ccb565b5b61157185828601611415565b92509250509250929050565b60006020828403121561159357611592611cd0565b5b600082013567ffffffffffffffff8111156115b1576115b0611ccb565b5b6115bd8482850161146b565b91505092915050565b6000602082840312156115dc576115db611cd0565b5b60006115ea848285016114ae565b91505092915050565b6000806040838503121561160a57611609611cd0565b5b600061161885828601611499565b925050602083013567ffffffffffffffff81111561163957611638611ccb565b5b611645858286016113e7565b9150509250929050565b600061165b8383611667565b60208301905092915050565b61167081611a36565b82525050565b61167f81611a36565b82525050565b600061169082611936565b61169a8185611959565b93506116a583611926565b8060005b838110156116d65781516116bd888261164f565b97506116c88361194c565b9250506001810190506116a9565b5085935050505092915050565b6116ec81611a48565b82525050565b6116fb81611a54565b82525050565b600061170c82611941565b611716818561196a565b9350611726818560208601611aee565b61172f81611cd5565b840191505092915050565b61174381611acd565b82525050565b61175281611a71565b82525050565b61176181611a9f565b82525050565b61177081611aa9565b82525050565b61177f81611ab9565b82525050565b600060208201905061179a6000830184611676565b92915050565b60006040820190506117b56000830185611676565b6117c26020830184611676565b9392505050565b600060208201905081810360008301526117e38184611685565b905092915050565b600060408201905061180060008301856116e3565b81810360208301526118128184611701565b90509392505050565b600060a08201905061183060008301886116f2565b61183d6020830187611776565b61184a6040830186611749565b6118576060830185611767565b6118646080830184611767565b9695505050505050565b6000602082019050611883600083018461173a565b92915050565b600060208201905061189e6000830184611758565b92915050565b60006118ae6118bf565b90506118ba8282611b21565b919050565b6000604051905090565b600067ffffffffffffffff8211156118e4576118e3611c88565b5b602082029050602081019050919050565b600067ffffffffffffffff8211156119105761190f611c88565b5b61191982611cd5565b9050602081019050919050565b6000819050602082019050919050565b600081519050919050565b600081519050919050565b6000602082019050919050565b600082825260208201905092915050565b600082825260208201905092915050565b600061198682611a9f565b915061199183611a9f565b9250827fffffffffffffffffffffffffffffffffffffffffffffffffffffffffffffffff038211156119c6576119c5611bcc565b5b828201905092915050565b60006119dc82611a9f565b91506119e783611a9f565b9250826119f7576119f6611bfb565b5b828204905092915050565b6000611a0d82611a9f565b9150611a1883611a9f565b925082821015611a2b57611a2a611bcc565b5b828203905092915050565b6000611a4182611a7f565b9050919050565b60008115159050919050565b6000819050919050565b6000819050611a6c82611ce6565b919050565b600061ffff82169050919050565b600073ffffffffffffffffffffffffffffffffffffffff82169050919050565b6000819050919050565b600063ffffffff82169050919050565b600067ffffffffffffffff82169050919050565b6000611ad882611a5e565b9050919050565b82818337600083830152505050565b60005b83811015611b0c578082015181840152602081019050611af1565b83811115611b1b576000848401525b50505050565b611b2a82611cd5565b810181811067ffffffffffffffff82111715611b4957611b48611c88565b5b80604052505050565b6000611b5d82611a9f565b91507fffffffffffffffffffffffffffffffffffffffffffffffffffffffffffffffff821415611b9057611b8f611bcc565b5b600182019050919050565b6000611ba682611a9f565b9150611bb183611a9f565b925082611bc157611bc0611bfb565b5b828206905092915050565b7f4e487b7100000000000000000000000000000000000000000000000000000000600052601160045260246000fd5b7f4e487b7100000000000000000000000000000000000000000000000000000000600052601260045260246000fd5b7f4e487b7100000000000000000000000000000000000000000000000000000000600052602160045260246000fd5b7f4e487b7100000000000000000000000000000000000000000000000000000000600052603260045260246000fd5b7f4e487b7100000000000000000000000000000000000000000000000000000000600052604160045260246000fd5b600080fd5b600080fd5b600080fd5b600080fd5b600080fd5b600080fd5b6000601f19601f8301169050919050565b60028110611cf757611cf6611c2a565b5b50565b611d0381611a36565b8114611d0e57600080fd5b50565b611d1a81611a9f565b8114611d2557600080fd5b5056fea26469706673582212200ce08a9c8d6c0184ab31588824188b491e8f42d6cc02755ce6fa250c29533a6b64736f6c63430008070033",
  "linkReferences": {},
  "deployedLinkReferences": {}
}