{
  "_format": "hh-sol-artifact-1",
  "contractName": "Cryrdle",
  "sourceName": "contracts/Cryrdle.sol",
  "abi": [
    {
      "inputs": [
        {
          "internalType": "address",
          "name": "vrfCoordinatorV2",
          "type": "address"
        },
        {
          "internalType": "uint64",
          "name": "subscriptionId",
          "type": "uint64"
        },
        {
          "internalType": "bytes32",
          "name": "gasLane",
          "type": "bytes32"
        },
        {
          "internalType": "uint256",
          "name": "interval",
          "type": "uint256"
        },
        {
          "internalType": "uint256",
          "name": "participationFee",
          "type": "uint256"
        },
        {
          "internalType": "uint32",
          "name": "callbackGasLimit",
          "type": "uint32"
        }
      ],
      "stateMutability": "nonpayable",
      "type": "constructor"
    },
    {
      "inputs": [
        {
          "internalType": "address",
          "name": "have",
          "type": "address"
        },
        {
          "internalType": "address",
          "name": "want",
          "type": "address"
        }
      ],
      "name": "OnlyCoordinatorCanFulfill",
      "type": "error"
    },
    {
      "inputs": [
        {
          "internalType": "uint256",
          "name": "cryrdleState",
          "type": "uint256"
        }
      ],
      "name": "UpkeepNotNeeded",
      "type": "error"
    },
    {
      "inputs": [],
      "name": "cryrdleNotOpen",
      "type": "error"
    },
    {
      "inputs": [],
      "name": "lowScore",
      "type": "error"
    },
    {
      "inputs": [],
      "name": "noPrizePool",
      "type": "error"
    },
    {
      "inputs": [],
      "name": "noScore",
      "type": "error"
    },
    {
      "inputs": [],
      "name": "notEqualFee",
      "type": "error"
    },
    {
      "inputs": [],
      "name": "notPaidFee",
      "type": "error"
    },
    {
      "anonymous": false,
      "inputs": [
        {
          "indexed": true,
          "internalType": "uint256",
          "name": "coinOfTheDay",
          "type": "uint256"
        }
      ],
      "name": "CoinOfTheDayUpdated",
      "type": "event"
    },
    {
      "anonymous": false,
      "inputs": [
        {
          "indexed": true,
          "internalType": "address",
          "name": "participant",
          "type": "address"
        }
      ],
      "name": "CryrdleJoined",
      "type": "event"
    },
    {
      "anonymous": false,
      "inputs": [],
      "name": "GameStateReinitiated",
      "type": "event"
    },
    {
      "anonymous": false,
      "inputs": [
        {
          "indexed": true,
          "internalType": "uint256",
          "name": "requestId",
          "type": "uint256"
        }
      ],
      "name": "NewCryrdleGameStarted",
      "type": "event"
    },
    {
      "anonymous": false,
      "inputs": [
        {
          "indexed": true,
          "internalType": "address[]",
          "name": "winners",
          "type": "address[]"
        }
      ],
      "name": "WinnersPayedOut",
      "type": "event"
    },
    {
      "inputs": [
        {
          "internalType": "address",
          "name": "_participant",
          "type": "address"
        },
        {
          "internalType": "uint256",
          "name": "points",
          "type": "uint256"
        }
      ],
      "name": "addPoints",
      "outputs": [],
      "stateMutability": "nonpayable",
      "type": "function"
    },
    {
      "inputs": [
        {
          "internalType": "bytes",
          "name": "",
          "type": "bytes"
        }
      ],
      "name": "checkUpkeep",
      "outputs": [
        {
          "internalType": "bool",
          "name": "upkeepNeeded",
          "type": "bool"
        },
        {
          "internalType": "bytes",
          "name": "",
          "type": "bytes"
        }
      ],
      "stateMutability": "view",
      "type": "function"
    },
    {
      "inputs": [],
      "name": "coinOfTheDay",
      "outputs": [
        {
          "internalType": "uint256",
          "name": "",
          "type": "uint256"
        }
      ],
      "stateMutability": "view",
      "type": "function"
    },
    {
      "inputs": [],
      "name": "gameAcc",
      "outputs": [
        {
          "internalType": "address",
          "name": "",
          "type": "address"
        }
      ],
      "stateMutability": "view",
      "type": "function"
    },
    {
      "inputs": [],
      "name": "gameBal",
      "outputs": [
        {
          "internalType": "uint256",
          "name": "",
          "type": "uint256"
        }
      ],
      "stateMutability": "view",
      "type": "function"
    },
    {
      "inputs": [],
      "name": "getCryrdleState",
      "outputs": [
        {
          "internalType": "enum Cryrdle.CryrdleState",
          "name": "",
          "type": "uint8"
        }
      ],
      "stateMutability": "view",
      "type": "function"
    },
    {
      "inputs": [],
      "name": "getHighScore",
      "outputs": [
        {
          "internalType": "uint256",
          "name": "",
          "type": "uint256"
        }
      ],
      "stateMutability": "view",
      "type": "function"
    },
    {
      "inputs": [],
      "name": "getInterval",
      "outputs": [
        {
          "internalType": "uint256",
          "name": "",
          "type": "uint256"
        }
      ],
      "stateMutability": "view",
      "type": "function"
    },
    {
      "inputs": [],
      "name": "getLastTimeStamp",
      "outputs": [
        {
          "internalType": "uint256",
          "name": "",
          "type": "uint256"
        }
      ],
      "stateMutability": "view",
      "type": "function"
    },
    {
      "inputs": [],
      "name": "getNumberOfParticipants",
      "outputs": [
        {
          "internalType": "uint256",
          "name": "",
          "type": "uint256"
        }
      ],
      "stateMutability": "view",
      "type": "function"
    },
    {
      "inputs": [],
      "name": "getNumberOfWinners",
      "outputs": [
        {
          "internalType": "uint256",
          "name": "",
          "type": "uint256"
        }
      ],
      "stateMutability": "view",
      "type": "function"
    },
    {
      "inputs": [],
      "name": "getParticipants",
      "outputs": [
        {
          "internalType": "address[]",
          "name": "",
          "type": "address[]"
        }
      ],
      "stateMutability": "view",
      "type": "function"
    },
    {
      "inputs": [],
      "name": "getParticipationFee",
      "outputs": [
        {
          "internalType": "uint256",
          "name": "",
          "type": "uint256"
        }
      ],
      "stateMutability": "view",
      "type": "function"
    },
    {
      "inputs": [
        {
          "internalType": "address",
          "name": "playerAddress",
          "type": "address"
        }
      ],
      "name": "getPlayerDayPointBalance",
      "outputs": [
        {
          "internalType": "uint256",
          "name": "",
          "type": "uint256"
        }
      ],
      "stateMutability": "view",
      "type": "function"
    },
    {
      "inputs": [
        {
          "internalType": "address",
          "name": "playerAddress",
          "type": "address"
        }
      ],
      "name": "getPlayerTotalPointBalance",
      "outputs": [
        {
          "internalType": "uint256",
          "name": "",
          "type": "uint256"
        }
      ],
      "stateMutability": "view",
      "type": "function"
    },
    {
      "inputs": [],
      "name": "getRequestConfirmations",
      "outputs": [
        {
          "internalType": "uint256",
          "name": "",
          "type": "uint256"
        }
      ],
      "stateMutability": "pure",
      "type": "function"
    },
    {
      "inputs": [],
      "name": "getRewardPerWinner",
      "outputs": [
        {
          "internalType": "uint256",
          "name": "",
          "type": "uint256"
        }
      ],
      "stateMutability": "view",
      "type": "function"
    },
    {
      "inputs": [],
      "name": "getWinnerBinary",
      "outputs": [
        {
          "internalType": "bool",
          "name": "",
          "type": "bool"
        }
      ],
      "stateMutability": "view",
      "type": "function"
    },
    {
      "inputs": [],
      "name": "getWinners",
      "outputs": [
        {
          "internalType": "address[]",
          "name": "",
          "type": "address[]"
        }
      ],
      "stateMutability": "view",
      "type": "function"
    },
    {
      "inputs": [],
      "name": "highscore",
      "outputs": [
        {
          "internalType": "uint256",
          "name": "",
          "type": "uint256"
        }
      ],
      "stateMutability": "view",
      "type": "function"
    },
    {
      "inputs": [],
      "name": "joinCryrdle",
      "outputs": [],
      "stateMutability": "payable",
      "type": "function"
    },
    {
      "inputs": [
        {
          "internalType": "bytes",
          "name": "",
          "type": "bytes"
        }
      ],
      "name": "performUpkeep",
      "outputs": [],
      "stateMutability": "nonpayable",
      "type": "function"
    },
    {
      "inputs": [
        {
          "internalType": "uint256",
          "name": "requestId",
          "type": "uint256"
        },
        {
          "internalType": "uint256[]",
          "name": "randomWords",
          "type": "uint256[]"
        }
      ],
      "name": "rawFulfillRandomWords",
      "outputs": [],
      "stateMutability": "nonpayable",
      "type": "function"
    },
    {
      "inputs": [],
      "name": "rewardPerWinner",
      "outputs": [
        {
          "internalType": "uint256",
          "name": "",
          "type": "uint256"
        }
      ],
      "stateMutability": "view",
      "type": "function"
    }
  ],
  "bytecode": "0x6101606040523480156200001257600080fd5b5060405162002447380380620024478339818101604052810190620000389190620001f5565b858073ffffffffffffffffffffffffffffffffffffffff1660808173ffffffffffffffffffffffffffffffffffffffff1660601b81525050508573ffffffffffffffffffffffffffffffffffffffff1660e08173ffffffffffffffffffffffffffffffffffffffff1660601b815250508361010081815250508260c081815250508467ffffffffffffffff166101208167ffffffffffffffff1660c01b815250508160a081815250506000600860006101000a81548160ff021916908360018111156200010a5762000109620002fd565b5b0217905550426009819055508063ffffffff166101408163ffffffff1660e01b81525050336000806101000a81548173ffffffffffffffffffffffffffffffffffffffff021916908373ffffffffffffffffffffffffffffffffffffffff1602179055506000600181905550505050505050620003b3565b600081519050620001938162000331565b92915050565b600081519050620001aa816200034b565b92915050565b600081519050620001c18162000365565b92915050565b600081519050620001d8816200037f565b92915050565b600081519050620001ef8162000399565b92915050565b60008060008060008060c087890312156200021557620002146200032c565b5b60006200022589828a0162000182565b96505060206200023889828a01620001de565b95505060406200024b89828a0162000199565b94505060606200025e89828a01620001b0565b93505060806200027189828a01620001b0565b92505060a06200028489828a01620001c7565b9150509295509295509295565b60006200029e82620002af565b9050919050565b6000819050919050565b600073ffffffffffffffffffffffffffffffffffffffff82169050919050565b6000819050919050565b600063ffffffff82169050919050565b600067ffffffffffffffff82169050919050565b7f4e487b7100000000000000000000000000000000000000000000000000000000600052602160045260246000fd5b600080fd5b6200033c8162000291565b81146200034857600080fd5b50565b6200035681620002a5565b81146200036257600080fd5b50565b6200037081620002cf565b81146200037c57600080fd5b50565b6200038a81620002d9565b81146200039657600080fd5b50565b620003a481620002e9565b8114620003b057600080fd5b50565b60805160601c60a05160c05160e05160601c610100516101205160c01c6101405160e01c6120186200042f600039600061077d0152600061075a01526000610739015260006106fd015260008181610cdf0152610d9c015260008181610d610152610dc201526000818161058101526105d501526120186000f3fe60806040526004361061014b5760003560e01c8063863fc11e116100b6578063c1c244e81161006f578063c1c244e814610454578063c763424f1461047f578063c80c28a2146104aa578063db705254146104d5578063df15c37e14610500578063e40e93d51461052b5761014b565b8063863fc11e146103735780638d8981b41461039e5780638e33cffc146103c957806391ad27b4146103f4578063959824d71461041f5780639abed90d146104295761014b565b80635142839f116101085780635142839f1461024c5780635aa0f9eb146102895780635aa68ac0146102b45780635f1b0fd8146102df57806364c8ec0c1461030a5780636e04ff0d146103355761014b565b806319682ae9146101505780631fe543e31461017b5780633824ea31146101a4578063401f6da8146101cf5780634585e33b146101fa578063507cd30f14610223575b600080fd5b34801561015c57600080fd5b50610165610568565b6040516101729190611a96565b60405180910390f35b34801561018757600080fd5b506101a2600480360381019061019d919061175d565b61057f565b005b3480156101b057600080fd5b506101b961063f565b6040516101c69190611ab1565b60405180910390f35b3480156101db57600080fd5b506101e4610649565b6040516101f191906119f8565b60405180910390f35b34801561020657600080fd5b50610221600480360381019061021c919061169a565b61064e565b005b34801561022f57600080fd5b5061024a6004803603810190610245919061165a565b610845565b005b34801561025857600080fd5b50610273600480360381019061026e919061162d565b610ba8565b6040516102809190611ab1565b60405180910390f35b34801561029557600080fd5b5061029e610bf1565b6040516102ab9190611ab1565b60405180910390f35b3480156102c057600080fd5b506102c9610bf7565b6040516102d691906119d6565b60405180910390f35b3480156102eb57600080fd5b506102f4610c85565b6040516103019190611ab1565b60405180910390f35b34801561031657600080fd5b5061031f610c92565b60405161032c9190611ab1565b60405180910390f35b34801561034157600080fd5b5061035c600480360381019061035791906116e7565b610c9c565b60405161036a929190611a13565b60405180910390f35b34801561037f57600080fd5b50610388610d5d565b6040516103959190611ab1565b60405180910390f35b3480156103aa57600080fd5b506103b3610d85565b6040516103c09190611ab1565b60405180910390f35b3480156103d557600080fd5b506103de610d8b565b6040516103eb9190611ab1565b60405180910390f35b34801561040057600080fd5b50610409610d98565b6040516104169190611ab1565b60405180910390f35b610427610dc0565b005b34801561043557600080fd5b5061043e610f9f565b60405161044b9190611ab1565b60405180910390f35b34801561046057600080fd5b50610469610fa5565b6040516104769190611ab1565b60405180910390f35b34801561048b57600080fd5b50610494610faf565b6040516104a19190611ab1565b60405180910390f35b3480156104b657600080fd5b506104bf610fb5565b6040516104cc9190611ab1565b60405180910390f35b3480156104e157600080fd5b506104ea610fc2565b6040516104f79190611992565b60405180910390f35b34801561050c57600080fd5b50610515610fe6565b60405161052291906119d6565b60405180910390f35b34801561053757600080fd5b50610552600480360381019061054d919061162d565b6110b1565b60405161055f9190611ab1565b60405180910390f35b6000600860009054906101000a900460ff16905090565b7f000000000000000000000000000000000000000000000000000000000000000073ffffffffffffffffffffffffffffffffffffffff163373ffffffffffffffffffffffffffffffffffffffff161461063157337f00000000000000000000000000000000000000000000000000000000000000006040517f1cf993f40000000000000000000000000000000000000000000000000000000081526004016106289291906119ad565b60405180910390fd5b61063b82826110fa565b5050565b6000600454905090565b600090565b600061066860405180602001604052806000815250610c9c565b509050806106ce57600860009054906101000a900460ff16600181111561069257610691611ec4565b5b6040517faa2a11b30000000000000000000000000000000000000000000000000000000081526004016106c59190611ab1565b60405180910390fd5b6001600860006101000a81548160ff021916908360018111156106f4576106f3611ec4565b5b021790555060007f000000000000000000000000000000000000000000000000000000000000000073ffffffffffffffffffffffffffffffffffffffff16635d3b1d307f00000000000000000000000000000000000000000000000000000000000000007f000000000000000000000000000000000000000000000000000000000000000060037f000000000000000000000000000000000000000000000000000000000000000060016040518663ffffffff1660e01b81526004016107be959493929190611a43565b602060405180830381600087803b1580156107d857600080fd5b505af11580156107ec573d6000803e3d6000fd5b505050506040513d601f19601f820116820180604052508101906108109190611730565b9050807f1bdeb90bbbf3df7a7a2a6b41c6dd703701bbec7136d50f019824be616ba3e4cc60405160405180910390a250505050565b60011515600c60008473ffffffffffffffffffffffffffffffffffffffff1673ffffffffffffffffffffffffffffffffffffffff16815260200190815260200160002060009054906101000a900460ff161515146108cf576040517f9fa61b6b00000000000000000000000000000000000000000000000000000000815260040160405180910390fd5b80600b60008473ffffffffffffffffffffffffffffffffffffffff1673ffffffffffffffffffffffffffffffffffffffff168152602001908152602001600020600082825461091e9190611bdb565b9250508190555080600a60008473ffffffffffffffffffffffffffffffffffffffff1673ffffffffffffffffffffffffffffffffffffffff16815260200190815260200160002060008282546109749190611bdb565b92505081905550600454600b60008473ffffffffffffffffffffffffffffffffffffffff1673ffffffffffffffffffffffffffffffffffffffff1681526020019081526020016000205410156109f6576040517f36a5e99400000000000000000000000000000000000000000000000000000000815260040160405180910390fd5b600454600b60008473ffffffffffffffffffffffffffffffffffffffff1673ffffffffffffffffffffffffffffffffffffffff168152602001908152602001600020541415610ac0576005829080600181540180825580915050600190039060005260206000200160009091909190916101000a81548173ffffffffffffffffffffffffffffffffffffffff021916908373ffffffffffffffffffffffffffffffffffffffff160217905550600580549050600154610ab59190611c31565b600381905550610ba4565b80600481905550600067ffffffffffffffff811115610ae257610ae1611f22565b5b604051908082528060200260200182016040528015610b105781602001602082028036833780820191505090505b5060059080519060200190610b269291906113e3565b506005829080600181540180825580915050600190039060005260206000200160009091909190916101000a81548173ffffffffffffffffffffffffffffffffffffffff021916908373ffffffffffffffffffffffffffffffffffffffff160217905550600580549050600154610b9d9190611c31565b6003819055505b5050565b6000600a60008373ffffffffffffffffffffffffffffffffffffffff1673ffffffffffffffffffffffffffffffffffffffff168152602001908152602001600020549050919050565b60015481565b60606002805480602002602001604051908101604052809291908181526020018280548015610c7b57602002820191906000526020600020905b8160009054906101000a900473ffffffffffffffffffffffffffffffffffffffff1673ffffffffffffffffffffffffffffffffffffffff1681526020019060010190808311610c31575b5050505050905090565b6000600361ffff16905090565b6000600354905090565b600060606000600860009054906101000a900460ff166001811115610cc457610cc3611ec4565b5b60006001811115610cd857610cd7611ec4565b5b14905060007f000000000000000000000000000000000000000000000000000000000000000060095442610d0c9190611c62565b119050808015610d195750815b9350836040518060400160405280600381526020017f3078300000000000000000000000000000000000000000000000000000000000815250935093505050915091565b60007f0000000000000000000000000000000000000000000000000000000000000000905090565b60045481565b6000600580549050905090565b60007f0000000000000000000000000000000000000000000000000000000000000000905090565b7f00000000000000000000000000000000000000000000000000000000000000003414610e19576040517f9b0d899a00000000000000000000000000000000000000000000000000000000815260040160405180910390fd5b6002339080600181540180825580915050600190039060005260206000200160009091909190916101000a81548173ffffffffffffffffffffffffffffffffffffffff021916908373ffffffffffffffffffffffffffffffffffffffff1602179055503460016000828254610e8e9190611bdb565b925050819055506001600c60003373ffffffffffffffffffffffffffffffffffffffff1673ffffffffffffffffffffffffffffffffffffffff16815260200190815260200160002060006101000a81548160ff0219169083151502179055503373ffffffffffffffffffffffffffffffffffffffff167f970f4396869f233c8ed5d8298cd4c285ad5bb9ee51f3143b146bccad8943903d60405160405180910390a260006001811115610f4457610f43611ec4565b5b600860009054906101000a900460ff166001811115610f6657610f65611ec4565b5b14610f9d576040517feb4ed6a900000000000000000000000000000000000000000000000000000000815260040160405180910390fd5b565b60035481565b6000600954905090565b60065481565b6000600280549050905090565b60008054906101000a900473ffffffffffffffffffffffffffffffffffffffff1681565b606060006003541415611025576040517f6d2c5a5400000000000000000000000000000000000000000000000000000000815260040160405180910390fd5b60058054806020026020016040519081016040528092919081815260200182805480156110a757602002820191906000526020600020905b8160009054906101000a900473ffffffffffffffffffffffffffffffffffffffff1673ffffffffffffffffffffffffffffffffffffffff168152602001906001019080831161105d575b5050505050905090565b6000600b60008373ffffffffffffffffffffffffffffffffffffffff1673ffffffffffffffffffffffffffffffffffffffff168152602001908152602001600020549050919050565b60006001541115611137576040517f5b966e5d00000000000000000000000000000000000000000000000000000000815260040160405180910390fd5b60005b6005805490508110156111e1576005818154811061115b5761115a611ef3565b5b9060005260206000200160009054906101000a900473ffffffffffffffffffffffffffffffffffffffff1673ffffffffffffffffffffffffffffffffffffffff166108fc6003549081150290604051600060405180830381858888f193505050501580156111cd573d6000803e3d6000fd5b5080806111d990611dec565b91505061113a565b5060056040516111f1919061197b565b60405180910390207f8d1771c4f4039d4e9b79206957dc144aad6066d3271a8841deeb99eac5e1e2fb60405160405180910390a2600160648260008151811061123d5761123c611ef3565b5b602002602001015161124f9190611e35565b6112599190611bdb565b600681905550600760065490806001815401808255809150506001900390600052602060002001600090919091909150556006547f75c61172a72ac1ebefdf79e15dcf7ff41e653b7f28cdb30b99527c8e2c80504560405160405180910390a26000600181905550600067ffffffffffffffff8111156112dc576112db611f22565b5b60405190808252806020026020018201604052801561130a5781602001602082028036833780820191505090505b50600590805190602001906113209291906113e3565b50600067ffffffffffffffff81111561133c5761133b611f22565b5b60405190808252806020026020018201604052801561136a5781602001602082028036833780820191505090505b50600290805190602001906113809291906113e3565b50426009819055506000600860006101000a81548160ff021916908360018111156113ae576113ad611ec4565b5b02179055507ffb8ce6b633f70504351138c9f5b9e6b8a0f9d24df5c52e727edcdb76416916ba60405160405180910390a15050565b82805482825590600052602060002090810192821561145c579160200282015b8281111561145b5782518260006101000a81548173ffffffffffffffffffffffffffffffffffffffff021916908373ffffffffffffffffffffffffffffffffffffffff16021790555091602001919060010190611403565b5b509050611469919061146d565b5090565b5b8082111561148657600081600090555060010161146e565b5090565b600061149d61149884611af1565b611acc565b905080838252602082019050828560208602820111156114c0576114bf611f6e565b5b60005b858110156114f057816114d68882611603565b8452602084019350602083019250506001810190506114c3565b5050509392505050565b600061150d61150884611b1d565b611acc565b90508281526020810184848401111561152957611528611f73565b5b611534848285611d5f565b509392505050565b60008135905061154b81611fb4565b92915050565b600082601f83011261156657611565611f69565b5b813561157684826020860161148a565b91505092915050565b60008083601f84011261159557611594611f69565b5b8235905067ffffffffffffffff8111156115b2576115b1611f64565b5b6020830191508360018202830111156115ce576115cd611f6e565b5b9250929050565b600082601f8301126115ea576115e9611f69565b5b81356115fa8482602086016114fa565b91505092915050565b60008135905061161281611fcb565b92915050565b60008151905061162781611fcb565b92915050565b60006020828403121561164357611642611f7d565b5b60006116518482850161153c565b91505092915050565b6000806040838503121561167157611670611f7d565b5b600061167f8582860161153c565b925050602061169085828601611603565b9150509250929050565b600080602083850312156116b1576116b0611f7d565b5b600083013567ffffffffffffffff8111156116cf576116ce611f78565b5b6116db8582860161157f565b92509250509250929050565b6000602082840312156116fd576116fc611f7d565b5b600082013567ffffffffffffffff81111561171b5761171a611f78565b5b611727848285016115d5565b91505092915050565b60006020828403121561174657611745611f7d565b5b600061175484828501611618565b91505092915050565b6000806040838503121561177457611773611f7d565b5b600061178285828601611603565b925050602083013567ffffffffffffffff8111156117a3576117a2611f78565b5b6117af85828601611551565b9150509250929050565b60006117c583836117e9565b60208301905092915050565b60006117dd8383611807565b60208301905092915050565b6117f281611cb6565b82525050565b61180181611cb6565b82525050565b61181081611cb6565b82525050565b600061182182611b73565b61182b8185611bae565b935061183683611b4e565b8060005b8381101561186757815161184e88826117b9565b975061185983611b94565b92505060018101905061183a565b5085935050505092915050565b600061187f82611b7e565b6118898185611bbf565b935061189483611b5e565b8060005b838110156118cc576118a982611f51565b6118b388826117d1565b97506118be83611ba1565b925050600181019050611898565b5085935050505092915050565b6118e281611cc8565b82525050565b6118f181611cd4565b82525050565b600061190282611b89565b61190c8185611bca565b935061191c818560208601611d6e565b61192581611f82565b840191505092915050565b61193981611d4d565b82525050565b61194881611cf1565b82525050565b61195781611d1f565b82525050565b61196681611d29565b82525050565b61197581611d39565b82525050565b60006119878284611874565b915081905092915050565b60006020820190506119a760008301846117f8565b92915050565b60006040820190506119c260008301856117f8565b6119cf60208301846117f8565b9392505050565b600060208201905081810360008301526119f08184611816565b905092915050565b6000602082019050611a0d60008301846118d9565b92915050565b6000604082019050611a2860008301856118d9565b8181036020830152611a3a81846118f7565b90509392505050565b600060a082019050611a5860008301886118e8565b611a65602083018761196c565b611a72604083018661193f565b611a7f606083018561195d565b611a8c608083018461195d565b9695505050505050565b6000602082019050611aab6000830184611930565b92915050565b6000602082019050611ac6600083018461194e565b92915050565b6000611ad6611ae7565b9050611ae28282611dbb565b919050565b6000604051905090565b600067ffffffffffffffff821115611b0c57611b0b611f22565b5b602082029050602081019050919050565b600067ffffffffffffffff821115611b3857611b37611f22565b5b611b4182611f82565b9050602081019050919050565b6000819050602082019050919050565b60008190508160005260206000209050919050565b600081519050919050565b600081549050919050565b600081519050919050565b6000602082019050919050565b6000600182019050919050565b600082825260208201905092915050565b600081905092915050565b600082825260208201905092915050565b6000611be682611d1f565b9150611bf183611d1f565b9250827fffffffffffffffffffffffffffffffffffffffffffffffffffffffffffffffff03821115611c2657611c25611e66565b5b828201905092915050565b6000611c3c82611d1f565b9150611c4783611d1f565b925082611c5757611c56611e95565b5b828204905092915050565b6000611c6d82611d1f565b9150611c7883611d1f565b925082821015611c8b57611c8a611e66565b5b828203905092915050565b600073ffffffffffffffffffffffffffffffffffffffff82169050919050565b6000611cc182611cff565b9050919050565b60008115159050919050565b6000819050919050565b6000819050611cec82611fa0565b919050565b600061ffff82169050919050565b600073ffffffffffffffffffffffffffffffffffffffff82169050919050565b6000819050919050565b600063ffffffff82169050919050565b600067ffffffffffffffff82169050919050565b6000611d5882611cde565b9050919050565b82818337600083830152505050565b60005b83811015611d8c578082015181840152602081019050611d71565b83811115611d9b576000848401525b50505050565b6000611db4611daf83611f93565b611c96565b9050919050565b611dc482611f82565b810181811067ffffffffffffffff82111715611de357611de2611f22565b5b80604052505050565b6000611df782611d1f565b91507fffffffffffffffffffffffffffffffffffffffffffffffffffffffffffffffff821415611e2a57611e29611e66565b5b600182019050919050565b6000611e4082611d1f565b9150611e4b83611d1f565b925082611e5b57611e5a611e95565b5b828206905092915050565b7f4e487b7100000000000000000000000000000000000000000000000000000000600052601160045260246000fd5b7f4e487b7100000000000000000000000000000000000000000000000000000000600052601260045260246000fd5b7f4e487b7100000000000000000000000000000000000000000000000000000000600052602160045260246000fd5b7f4e487b7100000000000000000000000000000000000000000000000000000000600052603260045260246000fd5b7f4e487b7100000000000000000000000000000000000000000000000000000000600052604160045260246000fd5b6000611f5d8254611da1565b9050919050565b600080fd5b600080fd5b600080fd5b600080fd5b600080fd5b600080fd5b6000601f19601f8301169050919050565b60008160001c9050919050565b60028110611fb157611fb0611ec4565b5b50565b611fbd81611cb6565b8114611fc857600080fd5b50565b611fd481611d1f565b8114611fdf57600080fd5b5056fea2646970667358221220fbb8a0f3fedda772b3c8eeaaafcbfa4ea86ee531bedc552a691a38d02b106a1464736f6c63430008070033",
  "linkReferences": {},
  "deployedLinkReferences": {}
}